:020000040800F2
:1000000000040020E1010008B90D0008B90D000846
:10001000B90D0008B90D0008B90D0008B90D0008A8
:10002000B90D0008B90D0008B90D0008E52B00084E
:10003000B90D0008B90D0008B90D0008B90D000888
:10004000B90D0008B90D0008B90D0008B90D000878
:10005000B90D0008B90D0008B90D0008B90D000868
:10006000B90D0008B90D0008B90D0008B90D000858
:10007000B90D0008B90D0008B90D0008B90D000848
:10008000B90D0008B90D0008B90D0008B90D000838
:10009000B90D0008B90D0008B90D0008B90D000828
:1000A000B90D0008B90D0008B90D0008B90D000818
:1000B00005250008B90D0008B90D0008B90D0008A4
:1000C000B90D0008B90D0008B90D0008B90D0008F8
:1000D000B90D0008B90D0008B90D0008B90D0008E8
:1000E000B90D0008B90D0008B90D0008B90D0008D8
:1000F000B90D0008B90D0008B90D0008B90D0008C8
:10010000B90D0008B90D0008B90D0008B90D0008B7
:10011000B90D0008B90D0008B90D0008B90D0008A7
:10012000B90D0008B90D0008B90D0008B90D000897
:10013000B90D0008B90D0008B90D0008B90D000887
:10014000B90D0008B90D0008B90D0008A522000876
:10015000B90D0008B90D0008B90D0008B90D000867
:10016000B90D0008B90D0008B90D0008B90D000857
:10017000B90D0008B90D0008B90D0008B90D000847
:10018000B90D0008B90D0008B90D0008B90D000837
:10019000B90D0008B90D0008B90D0008B90D000827
:1001A000B90D0008B90D0008B90D0008B90D000817
:1001B000B90D0008B90D0008B90D0008B90D000807
:1001C000B90D0008B90D0008B90D0008B90D0008F7
:1001D000B90D0008B90D0008B90D0008B90D0008E7
:1001E00072B6374880F3098836484EF60851CEF289
:1001F0000001086040F20000CCF200004EF63471BD
:10020000CEF200010860BFF34F8FBFF36F8F40F253
:100210000000C0F2F0004EF68851CEF200010860F6
:10022000BFF34F8FBFF36F8F4FF00000E1EE100A66
:100230004EF63C71CEF200010860062080F314886F
:10024000BFF36F8F00F09AFD02F09CF94FF055302C
:100250001D491E4A91423CBF41F8040BFAE71C4974
:10026000174A91423CBF41F8040BFAE719491A4A70
:100270001A4B9A423EBF51F8040B42F8040BF8E7C0
:1002800000201749174A91423CBF41F8040BFAE796
:1002900000F078FD02F078F9134C144DAC4203DA0B
:1002A00054F8041B8847F9E700F0B6F8104C114DDC
:1002B000AC4203DA54F8041B8847F9E700F060BD4C
:1002C00000080020000000080000002000040020BA
:1002D00000040020D0350008000800202808002075
:1002E00028080020301A0020E0010008E001000882
:1002F000E0010008E00100082DE9F04F2DED108A23
:10030000C1F80CD0C3689D46BDEC108ABDE8F08FE3
:10031000002383F311882846A047002000F050FFF7
:1003200000F0EAFE00DFFEE7012020E000C0A0E1CF
:10033000030012E33200001A030011E32100001A47
:1003400004502DE50150A0E3055485E1055885E1F1
:1003500004402DE5040011E3043091E40500000A97
:10036000052043E00320D2E1850312E104308C0430
:10037000043091040C00001A044091E4052043E08D
:100380000320D2E1850312E1052044E00600001AB3
:1003900004308CE40420D2E1850312E1043091049E
:1003A00004408C04F3FFFF0A0430A0E10130CCE4E8
:1003B000FF0013E36334A0E1FBFFFF1A04409DE458
:1003C00004509DE41EFF2FE1010011E30300000A29
:1003D0000120D1E40120CCE4000052E31EFF2F01F4
:1003E000020011E3D5FFFF0AB220D1E0FF0012E3C3
:1003F000B220CC100020CC05FF0C1213CFFFFF1A47
:100400001EFF2FE10120D1E40120CCE4000052E3E3
:10041000FBFFFF1A1EFF2FE138B5174B0322002404
:100420001A700F225C709C70DC701C715C719C7186
:10043000DC711C725C729A72DC7202F0F5FA0F4B7E
:10044000984217D00133984241F2883412BF0025F8
:1004500000240125002002F0EDFA0DB100F052F861
:1004600000F060FC00F022FB204600F091F800F064
:1004700049F8F9E72546EDE728080020010007B014
:1004800008B500F0B5FAA0F120035842584108BD64
:1004900007B5054B02211B88ADF8043001A800F018
:1004A000F5FA03B05DF804FBA032000810B511485E
:1004B000C3680BB100F04CFD0F4C104A0D480023EF
:1004C0004FF47A7100F008FD236813B12368013BF3
:1004D0002360636813B16368013B6360084B1B785A
:1004E00033B9636823B9022000F0CCFB3223636088
:1004F00010BD00BF340800204C0D0020AD040008E2
:100500004808002038B51B4C2368013330D01A4D01
:100510001A4B2A689A422BD9194B9B6803F1006346
:1005200003F580339A4223D2002000F0D9FA154B0C
:100530000220187000F096FB134B1A6C00221A640C
:10054000596C5A64596941F0800159615A611969BD
:1005500041F0005119611A6172B60C4B1C6023689E
:100560002A68202181F311889D4683F3088810476B
:1005700038BD00BF0000010804000108FFFF0008AB
:1005800028080020480800200038024008ED00E05C
:100590002DE9F04FB34B8246B3489C680022C260FD
:1005A0008FB0202282F31188C26800930AB100F054
:1005B000CFFC0023AD4AAC484FF47A7100F08CFCBC
:1005C000002383F31188DFF8C0B2BAF1000F01D025
:1005D000CBF800A0A64FCBF8043000253B702E4688
:1005E0004FF0FF38012000F03DFBBAF1000F00F0A2
:1005F000C181DBF80030002B40F0BC810FB0BDE8BA
:10060000F08F0220FFF73CFF002840F0AF81994BAC
:100610001B88ADF82430022109A800F037FAE1E781
:100620004FF47A7000F0E4F9031E0193EFDB02202F
:10063000FFF726FF81460028E9D0019B581E0428B9
:10064000E5D8DFE800F00310131619000EA8052303
:1006500040F8143D042100F019FA4D4600F058FB13
:10066000FFF716FF7FE104217E48F4E7042182486A
:10067000F1E704218148EEE71C25284600F032FA14
:1006800004350990042109A800F000FA2C2DF4D1BA
:10069000E3E7002EBBD0002DB9D00220FFF7F0FE1B
:1006A000064610B901252E46B1E7012000F018FAE0
:1006B0000220387000F0D6FA00255FFA85F9484626
:1006C00000F026FA0135044618B1484600F030FA29
:1006D000F3E7012302203B7000F0B2FA009B9B6815
:1006E0009C4207D2204600F0FDF9013040F04081E5
:1006F0000434F3E700243C70CBF804403546ADE702
:10070000002E84D0002D82D00220387000F0AAFA8A
:10071000322000F06DF9051EC4DB15F00306C1D1CF
:10072000009A926863199342BCD8B5F5807FB9D816
:10073000DFF84C91AE420CDA4FF47A7000F058F9C1
:100740000390039B002BADDB039B06F809300136B9
:10075000F0E7C820FFF794FE06460028A2D02CB987
:10076000474B4FF0FF32D3F800801A60444B25F01E
:1007700003052544A3EB0409AC42BFD059F804108B
:10078000204600F0B5F9204600F0ACF959F80430E5
:10079000984240F0ED800434EEE70220FFF770FE4F
:1007A00000283FF434AF4FF0000AD146009B9B680D
:1007B0009A4537D2BAF1000F17D1B8F1FF3F14D0E4
:1007C000CDF824802F494B68A3B1002209A8135CFF
:1007D00083EA0903DBB2013251F82330042A83EAA9
:1007E0001929F4D10AF1040AE0E7504600F07AF939
:1007F0000990E7E71A46082012F0010F4FEA52026B
:100800001FBF82F06D4282F4380282F4034282F00C
:1008100020020138F0D141F823200133B3F5807F65
:10082000E8D1D2E70EA8042140F8289D00F02EF967
:1008300014E70EA8002340F8143D642100F002F9EB
:1008400000287FF4E4AE0220FFF71AFE00283FF4F0
:10085000DEAE099800F07EF90EAB43F8240D0421BA
:100860001846E3E72808002034080020AD040008FB
:1008700048080020A23200082C0800203008002080
:100880004C0800204C0900204C0D00200EA800232D
:1008900040F8143D642100F0D5F800287FF4B7AE8D
:1008A0000220FFF7EDFD00283FF4B1AE099800F0FB
:1008B0005FF90EAB43F8200DD1E70220FFF7E0FD12
:1008C00000283FF4A4AE00F059F90EAB43F81C0D1C
:1008D000C5E70220FFF7D4FD00283FF498AE09A930
:1008E000142000F051F981460EA8042140F8189D0B
:1008F00000F0CCF8494609A898E74FF47A70FFF762
:10090000BFFD00283FF483AEB8F1FF3F05D1FFF7EC
:10091000BFFD354800F05AFC70E64146002000F06B
:10092000E7F8002000F0DEF88045F0D02F4B6FE6AE
:100930000EA8002340F8143D642100F083F800283D
:100940007FF465AE0220FFF79BFD00283FF45FAE09
:10095000FFF79EFD41F2883000F038FC099800F066
:100960000BFA00F0D5F94FF0000A3BE6064675E6B3
:100970003546DBE7002000F03BF80390039B002B9B
:10098000FFF633AE012000F05BF9039B213B122BF5
:100990003FF628AE01A252F823F000BF030600087C
:1009A0002106000893060008E5050008E505000893
:1009B000E505000801070008E50500089B07000899
:1009C000330800088D080008BB080008E50500088A
:1009D000D3080008E5050008FB0800085D060008CC
:1009E000E505000831090008A0860100A4320008CE
:1009F00037B5114A12780132D2B20024012A0346D7
:100A00008DF8074011D80D480268D5694FF47A7205
:100A100053430DF107010122A847012805D1084BD6
:100A20009DF807001C7003B030BD4FF4FA7000F061
:100A3000CDFB4FF0FF30F6E700080020D810002073
:100A4000580D002038B50E4B1A780132D2B2012A67
:100A500005460ED80B480368DC694FF47A734B43A4
:100A600004222946A047042803D1074B0020187010
:100A700038BD4FF4FA7000F0A9FB4FF0FF3038BDDD
:100A800000080020D8100020580D002030B4054C7C
:100A900023689D69044B0A46AC460146204630BC9B
:100AA000604700BFD8100020A086010070B501F09B
:100AB000F7FE094C094E20700025306823788342E8
:100AC00008D901F0E7FE336805440133B5F5803FEE
:100AD0003360F2D370BD00BF590D0020540D0020CB
:100AE00001F08EBF00F1006000F5803000687047B3
:100AF00007B502AB00F1006043F8041D042219465B
:100B000000F5803001F00AFF03B05DF804FB00003F
:100B1000054B1A68054B1B781344834202D91044D5
:100B200001F0B8BE00207047540D0020590D002080
:100B300038B5074D04462868204401F0B3FE28B9B3
:100B400028682044BDE8384001F0C4BE38BD00BF6D
:100B5000540D002010F0030308D1B0F5007F05D834
:100B600000F10050A0F50840006870470020704771
:100B7000014BC058704700BF107AFF1F014B186827
:100B8000704700BF002004E070B52A4B1C68C4F316
:100B90000B03240C63B140F21342934231D040F274
:100BA000194293422FD040F2214293422DD1032388
:100BB000214A0C2505FB03235D6893F9082042F2C6
:100BC00001039C4224D0B4F5805F23D041F201039D
:100BD0009C4221D041F203039C421FD041F2070303
:100BE0009C4208BF3122441E0C44013D0B46A342E7
:100BF0001ED215F9016F581C96B1034600F8016C1E
:100C0000F5E70123D4E70223D2E73F220B4DD6E7D5
:100C10003322E3E74122E1E75A22E4E75922E2E7FF
:100C20002C2584421D7001D9981C5A70401A70BD41
:100C30001846FBE7002004E0B4320008A8320008A0
:100C4000022804D1054B4FF400329A617047012805
:100C5000FCD14FF08052024BF7E700BF0004024086
:100C600000100240022802D1044B9861704701280D
:100C700002BF034B4FF480529A6170470004024058
:100C800000100240022805D1064A536983F002038E
:100C9000536170470128FCD1034A536983F48053A0
:100CA000F6E700BF000402400010024010B5002328
:100CB000934203D0CC5CC4540133F9E710BD00006B
:100CC00030B5441E14F9010F0B4660B193F9005082
:100CD000854201F1010106D11AB993F90020801A69
:100CE00030BD013AEEE7002AF7D1104630BD0000D2
:100CF00002460346981A13F9011B0029FAD17047DE
:100D000002440346934202D003F8011BFAE77047FE
:100D1000024B1A78024B1A70704700BF580D002022
:100D20000008002038B5104D104C284600F010FB8C
:100D30002146284600F038FB23680D485A6DD2F84A
:100D4000043843F00203C2F8043800F03FFA0949BE
:100D5000206800F041FC23685A6DD2F8043823F073
:100D60000203C2F8043838BDD8100020B03400089F
:100D700040420F00FC34000870470000704700003C
:100D8000FEE70000084A094B09498B4204D3094A8F
:100D90000021934205D3704752F8040F43F8040B27
:100DA000F3E743F8041BF4E7F4350008301A002099
:100DB000301A0020301A00201EF0040F0CBFEFF391
:100DC0000880EFF309808169004A1047D50D0008BB
:100DD00070470000204B02681A60204B42681A607E
:100DE0001F4B82681A601F4BC2681A601E4B026953
:100DF0001A601E4B42691A601D4B82691A601D4BB6
:100E0000C2691A601C4B1D491A681D4B1A601A688A
:100E1000120A0A701A681B4B1A701B4B1A681B4B7C
:100E20001A601B4B1A681B4B1A601B4B1A681B4B32
:100E30001A601B4B1A681B4B1A601B4B1A681B4B22
:100E40001A601B4B5A6A1B4B1A601B4B1B68DB0753
:100E500001D500BEFEE7FEE78C0D0020900D0020BE
:100E6000980D00209C0D0020940D0020800D002086
:100E7000840D0020880D002028ED00E0640D002086
:100E8000680D0020780D00202CED00E0700D002092
:100E900030ED00E06C0D00203CED00E05C0D00202A
:100EA00034ED00E0740D002038ED00E0600D00200E
:100EB00000ED00E07C0D0020F0ED00E0054B03F1BB
:100EC00014025A619A614FF0FF32DA6100221A620D
:100ED000704700BFA00D0020F8B503614FF08043BC
:100EE000C2605C6A194B1A46022952F8145F38BF77
:100EF0000221954206461F460AD1586198611C623C
:100F00000560456081600819BDE8F84000F042BB0B
:100F1000186AAB68241A0C1902D3E41A2D6804E08D
:100F20009C4202D2204400F043FBAB689C42F4D8C0
:100F30006B68736035601E606E60B460A9684FF0C6
:100F4000FF33091BA960FB61F8BD00BFA00D0020A5
:100F500010B41B4C234653F8141F814210D0416833
:100F600002680A60026851609A424FF00001C16055
:100F700003D0936881680B4493605DF8044B70471D
:100F80000A68626100209A425360C86003D15DF82C
:100F9000044B00F007BB93688868034493604FF0EC
:100FA0008042506A226A821A9342E6D99B1A022B27
:100FB0002CBFC01802305DF8044B00F0F9BA00BF36
:100FC000A00D0020024B00221B605B609A607047FE
:100FD000A00D0020002303748268054B1B689968EC
:100FE0009142FBD25A6803604260106058607047BB
:100FF000A00D002008B5202383F31188037C032B68
:1010000005D0042B0DD02BB983F3118808BD43699B
:1010100000221A604FF0FF334361FFF7DBFF00232C
:10102000F2E790E80C001A6002685360F2E70000F3
:10103000002303748268054B1B6899689142FBD8B2
:101040005A6803604260106058607047A00D00202D
:10105000054B19690874186802681A6053601861B2
:1010600001230374FFF748B9A00D002030B54B1CD5
:1010700087B005460A4C10D023690A4A01A8FFF739
:101080002BFF2846FFF7E4FF049B13B101A8FFF7ED
:101090005FFF2369586907B030BDFFF7D9FFF8E754
:1010A000A00D0020F50F000838B50C4D41612B69EB
:1010B00081689A689142044603D8BDE83840FFF73A
:1010C00089BF1846FFF786FF01232C610146237470
:1010D0002046BDE83840FFF70FB900BFA00D002043
:1010E000044B1A681B6990689B68984294BF002063
:1010F00001207047A00D002010B5084C236820691E
:101100001A6822605460012223611A74FFF790FF6D
:1011100001462069BDE81040FFF7EEB8A00D0020A1
:1011200008B5FFF7DDFF18B1BDE80840FFF7E4BFE1
:1011300008BD0000826002220274002242748261B3
:10114000704700008368A3F1840243F8142C0269FD
:1011500043F8442C426943F8402C084A43F8242CB5
:10116000C26843F8182C022203F8102C002203F85E
:101170000F2C43F8082CA3F120007047110300083E
:1011800008B5FFF7DFFFBDE80840FFF723BF000009
:1011900010B5202383F31188FFF7D4FF0021044604
:1011A000FFF782FF002383F31188204610BD000063
:1011B000024B1B6958610F20FFF74ABFA00D0020AA
:1011C000202383F31188FFF7F3BF000008B5014621
:1011D000202383F311880820FFF748FF002383F3BF
:1011E000118808BD10B5054C2369036058610320C0
:1011F000FFF72EFF2369586910BD00BFA00D002026
:1012000003682BB10022026059611846FFF7E2BE65
:101210007047000049B1064B42681B6918605A606C
:10122000136043600420FFF721BF4FF0FF30704789
:10123000A00D00200368984206D01A680260506032
:1012400059611846FFF7C6BE7047000038B504461E
:101250000D462068844200D138BD036823605C607D
:101260004561FFF7B7FEF4E713B5446BD4F88C344F
:101270001A681178042916D1217A022913D1197913
:10128000128901238B4013420DD101A904F14400BE
:1012900001F004FE024630B1D4F88C44019B217960
:1012A000206800F0E5F902B010BD00000C3001F03C
:1012B00073BD00004FF0FF330C3001F06DBD000036
:1012C000443001F057BE00004FF0FF33443001F0CE
:1012D00051BE00000C3001F041BD00004FF0FF3165
:1012E0000C3001F03BBD0000443001F023BE000093
:1012F0004FF0FF32443001F01DBE0000D0F88C24C6
:1013000038B5136819780429054601D0012038BD85
:10131000017A0229FAD112795C89012090400440B7
:10132000F4D105F10C0001F0D3FC02460028EDD009
:10133000D5F88C544FF480732868697900F086F9E9
:10134000204638BD406BFFF7D9BF00007047000052
:101350007FB50346114A43F8042B0125436002265A
:101360000F4B057204460290019300F17C0229465E
:1013700000964FF480730C3001F086FC094B01930A
:10138000029400964FF4807304F52172294604F10B
:10139000440001F05FFD04B070BD00BF04330008DD
:1013A00045130008691200080B68202282F3118897
:1013B0000A7903EB820290614A79093243F82200EC
:1013C0008A7912B103EB8203986102230372C0F899
:1013D0008C14002383F311887047000038B504464D
:1013E00001250221043001F0D9FB04F10C00257520
:1013F0006FF00101FFF72AFF84F84C5004F144001C
:101400006FF00101BDE83840FFF720BF10B50121A2
:101410000446043001F0C2FB0023237584F84C30ED
:1014200010BD000038B5044600250C3001F044FC26
:1014300004F14400257501F025FD201D84F84C5071
:10144000012101F0ABFB2046BDE83840FFF756BF55
:1014500090F8443003F06003202B19D190F8452018
:10146000212A0AD0222A4FF000030ED0202A0FD1C1
:10147000084A82630722C26304E0064B83630723A2
:10148000C36300230364012070478363C363F9E7E8
:101490000020704701080020D0F88C3437B51A6856
:1014A0001178042904461AD1017A022917D1197931
:1014B000128901238B40134211D100F144052846C3
:1014C00001F0B6FD58B101A9284601F0E7FCD4F8B7
:1014D0008C44019B21790246206800F0C9F803B0D2
:1014E00030BD000000EB8103F7B59C6905460E4650
:1014F000F4B1202383F3118805EB8607201D082112
:1015000001F04CFBFB685B691B68443413B1204657
:1015100001F0D2FC01A9204601F0C0FC024648B10E
:10152000019B3146284600F0A3F8002383F311887D
:1015300003B0F0BDFB685A691268002AF5D01B8A17
:10154000013B1340F1D105F14402EAE7093110B53E
:1015500050F82140CCB1202383F311880421601876
:1015600001F01CFBD4F88C241368527903EB82033E
:1015700004F10C00DB689B69596801F0B3FB20465D
:10158000FFF7BCFE002383F3118810BD70470000F5
:1015900000F0CCBF4FF08043002258631A61022252
:1015A000DA6070474FF080430022DA607047000035
:1015B0004FF080435863704700F09CBB01230370D9
:1015C00000234360C36183620362C36243620363B7
:1015D000038143817047000038B50446202383F31C
:1015E000118800254160C56005614561856100F095
:1015F00093FB0223237085F3118838BD70B500EB8F
:10160000810305465069DA600E46144618B110226F
:101610000021FFF775FBA06918B110220021FFF728
:101620006FFB31462846BDE8704000F04DBC00001D
:10163000028902F001020281428902F00102428124
:10164000002202614261826100F0D2BCF0B400EB82
:1016500081044789E4680125A4698D403D434581A3
:1016600023600023A2606360F0BC00F0EDBC0000CA
:10167000F0B400EB81040789E468012564698D40BA
:101680003D43058123600023A2606360F0BC00F04D
:101690006BBD000070B50223002504460370A0F85E
:1016A0004C5080F84E5080F84F5005814581C56000
:1016B00005614561856180F8345000F0A3FB6368E3
:1016C0001B6823B129462046BDE87040184770BD0D
:1016D000436802781B6880F85020052202700BB125
:1016E0000421184770470000436890F850201B6899
:1016F00002700BB1052118477047000070B5002338
:10170000044680F8343000F1440200F093FC636832
:101710009B685BBB94F8445015F0600614D194F8B4
:10172000453005F07F0545EA0325B5F5407F00F01B
:10173000A58059D8022D00F0F1803FD8002D00F08F
:101740008780012D00F0E4800021204600F0BCFEDF
:101750000021204600F0AEFE63681B6813B106212D
:1017600020469847062384F8343070BD20469847B9
:101770000028CFD094F84B2094F84A3043EA022353
:10178000E26B934238BFE36394F94430E56B002B7E
:101790004FF0200380F20181002D00F0F080012243
:1017A00084F8342083F311880021E36BA26B204678
:1017B000FFF75EFF002383F3118870BDB5F5807FCE
:1017C0004DD0B5F5817FBFD194F84630002BBBD109
:1017D00094F8483013F00F0126D01A06204640F145
:1017E000B78000F085FE1FE0B5F5C06F50D020D85F
:1017F00040F202339D4200F0AE80B5F5A06FA3D158
:10180000B4F84430B3F5A06F0ED194F8463084F8A4
:101810004E30204600F04CFB63681B6813B1012179
:1018200020469847032323700023A363E3632364C4
:10183000A0E7B5F5106F41D040F602439D4267D056
:10184000B5F5006F80D104F14F03A363012333E0AA
:1018500004F14C03A3630223E36325648AE794F84D
:101860004630012B7FF470AFB4F84C3023F0020304
:10187000A4F84C30A663E66326647BE794F8463010
:10188000012B7FF461AFB4F84C3043F00203EFE773
:1018900094F84920616894F848304D6894F84710EE
:1018A00043EA0223204694F84620A84700283FF444
:1018B0004BAF4368A3630368E363DDE794F84F200D
:1018C00094F846309A42AFD02378042B10D12023CD
:1018D00083F311882046FFF7ABFE86F31188636817
:1018E00084F84F601B68032121700BB12046984794
:1018F00094F84630002B97D084F84F30042323709F
:1019000063681B68002B8FD00221204698478BE725
:101910002E4BA3630223E363002388E794F8481067
:1019200011F0800F204601F00F010ED000F074FB83
:10193000012806D002287FF407AF254BA363E0639C
:101940009AE7244BA363E56396E700F057FBEFE7C4
:1019500000F0C4FD68E794F84630002B7FF4F4AE45
:1019600094F8483013F00F013FF45EAF1B06204699
:1019700002D500F0A9FD57E700F09CFD54E70322D3
:1019800084F8342083F311882B462A4629462046C2
:10199000FFF75CFE85F3118870BD5DB1042284F809
:1019A000342083F311880021E36BA26B2046FFF7FC
:1019B0004DFEFFE6052284F8342083F311882B4680
:1019C0002A4629462046FFF753FEE3E72C3300085A
:1019D000243300082833000838B590F83430044622
:1019E000062B22D8DFE803F03704223737323700DE
:1019F00090F84B1090F84A20C36B42EA01229A42B9
:101A000014D9C268128AB3FBF2F502FB15356DB921
:101A1000202383F311882B462A462946FFF728FE08
:101A200085F31188022384F8343038BD032384F809
:101A30003430202383F3118800231A4619462046A8
:101A4000FFF704FE002383F3118838BD036C03B154
:101A500098470023E7E7002100F036FD00212046EB
:101A600000F028FD63681B6813B1062120469847E3
:101A70000623D8E790F83420062A38B5044621D842
:101A80000123934013F0670F1DD113F008050FD108
:101A9000DB0617D5052380F83430202383F3118823
:101AA0002B462A462946FFF7E3FD85F3118838BD0A
:101AB000C3689B695B682BB9036C03B1984700232B
:101AC00084F8343038BD002100F0FEFC00212046AF
:101AD00000F0F0FC63681B6813B1062120469847AC
:101AE0000623EDE7836D30B500229D68446D1146F5
:101AF0004FF0FF3004EB421301329542C3F8001956
:101B0000C3F81019C3F80809C3F8001BC3F8101B69
:101B1000C3F8080BEED24FF00113C4F81C3830BDE7
:101B2000890141F02001016103699B06FCD4122068
:101B300001F016B82DE9F04F202387B00446456D1B
:101B400083F3118800F1640305934FF0000B2378B1
:101B5000012B04D0236E4BB96B69DB0606D4AB694D
:101B6000059843F01003AB61FFF73CFB8BF3118842
:101B70004FF0000E4FF02009A36D9B685FFA8EF0C6
:101B800083421BD2202383F31188E0E7616D0A6A48
:101B900002F4F013B3F5802F66D0B3F5402F0DD1CA
:101BA000C2F30A1602F00F0204EB820201F5805123
:101BB000D3681F6A00231A469E4248D1696911F012
:101BC0001001E3D1012303FA00F2236E1A4200F060
:101BD0008C8089F31188AB6823F00103AB60236E1E
:101BE00023EA0203236681F3118804EB8003D3F810
:101BF0000C80D8F814100B680093431C1B0302934D
:101C0000430104934868009B98425FD2B8F8106083
:101C1000676D1B1AB34228BF3346049EBE19D6F81F
:101C20001869B6B2B3EB860F62D8029EBE1903964E
:101C30008E680196A6F1040A9C46039E5AF8047F1A
:101C40003760BCF1040F3BD9ACF1040CF5E713F09D
:101C5000030F08BF0A68072B98BF3A7003F101030E
:101C60009CBF120A0137A7E7C2F30A1602F00F025F
:101C700004EB820201F58051D3689B691F68D3F899
:101C800008805B68A7EB030C00231F469E4208D127
:101C9000D36899698A684B68324433448A604B60E0
:101CA0008CE713F0030F08BF0F689C4588BF88F8C6
:101CB000007003F1010384BF3F0A08F10108E5E762
:101CC000019E1E4403448E604B609BE7012189F313
:101CD0001188AB6843F00103AB6021B9D5F8343803
:101CE0001A43C5F834288BF311880EF1010E43E72F
:101CF0000021ECE710B5064C2046FFF75FFC4FF0E3
:101D0000A04200236265034A6366A265A36610BD14
:101D1000E80D00205433000870B50378012B86B01D
:101D200005465BD12F4B446D984213D12E4B5A6B15
:101D300042F080025A635A6942F080025A610022DE
:101D40005A610E21432001F093F9284BE360284BA0
:101D5000C4F8003800232B66C4F8003EC02323607B
:101D60004FF40413A3636E6D202000F0F9FE0123ED
:101D700033613369DB07FCD4122000F0F1FE3369D4
:101D8000002BFCDA0026A6602846FFF7ABFE6B6846
:101D9000C4F81068DB68C4F81468C4F81C68FBB9A0
:101DA000144BA3614FF0FF336361AB6E93B9124BD9
:101DB000009305F17003019305F536730293022336
:101DC000039368460D4B04930595FFF7D9F9A86670
:101DD000FFF7A6F9A36843F00103A36006B070BD46
:101DE000074BDEE7E80D00200038024040140040B9
:101DF00003002002003C30C060330008351B00089F
:101E0000083C30C0F8B5446D054600212046FFF778
:101E100087FEA96D00234FF001128F68C4F8343893
:101E20004FF00066C4F81C284FF0FF3004EB43125B
:101E300001339F42C2F80069C2F8006BC2F808097A
:101E4000C2F8080BF2D20B68EB6563626B6D10226F
:101E50001A611E6916F01006FBD1122000F080FEF8
:101E6000D4F8003823F4FE63C4F80038A36943F4BF
:101E7000402343F01003A3610923C4F81038C4F8C9
:101E80001438094BEB60094BC4F8106BC4F8003BE5
:101E9000C4F81069C4F80039EB6D03F1100243F483
:101EA0008013EA65A362F8BD30330008408000105B
:101EB000426D90F84E10D2F8003823F4FE6343EAE6
:101EC0000113C2F8003870472DE9F0410EB200EB63
:101ED00086080D46D8F80C100F6807F00303022B94
:101EE00050D0032B50D03D4A3D4F012B18BF174611
:101EF000446D4FEA451E04EB0E030022C3F8102B7D
:101F00008A6905F1100C002A40D04A8A05F158036D
:101F10005B013A43E2500123D4F81C2803FA0CF386
:101F20001343A6444A69C4F81C380023CEF810397C
:101F300005F13F03002A39D00A8A898B92080129CA
:101F400088BF4A43C16D04EB8303561841EA02423D
:101F5000C66529465A602046FFF7E2FDD8F80C30E6
:101F60001B8A43EA85531F4305F148035B01E75091
:101F70000123D4F81C2803FA05F51543C4F81C58AE
:101F8000BDE8F081174FB3E7174FB1E704EB4613F5
:101F9000D3F8002B22F40042C3F8002BD4F81C28FD
:101FA000012303FA0CF322EA0303BAE704EB8303E9
:101FB0000E4A5A6004EB461629462046FFF7B0FD4C
:101FC000D6F8003923F40043C6F80039D4F81C3899
:101FD000012202FA05F523EA0505CFE7008000108B
:101FE000008004100080081000800C100004000223
:101FF000826D1268C265FFF775BD00005831436DF0
:1020000049015B5813F4004004D013F4001F14BFBF
:1020100001200220704700004831436D49015B58A0
:1020200013F4004004D013F4001F14BF0120022059
:102030007047000000EB8101CB68196A0B681360E0
:102040004B6853607047000000EB810330B5DD68DA
:10205000AA691368D36019B9402B84BF4023136069
:102060006B8A1468426D1C44013CB4FBF3F4634377
:10207000033323F0030302EB411043EAC44343F06C
:10208000C043C0F8103B2B6803F00303012B09B2D7
:102090000ED1D2F8083802EB411013F4807FD0F84B
:1020A000003B14BF43F0805343F00053C0F8003BA3
:1020B00002EB4112D2F8003B43F00443C2F8003B6C
:1020C00030BD00002DE9F041264D6E6D06EB40134A
:1020D0000446D3F8087BC3F8087B38070AD5D6F83E
:1020E0001438190706D505EB84032146DB6828461A
:1020F0005B689847FA0733D5D6F81438DB072FD535
:1021000014B995F834305BB305EB8403D968CCB9C6
:102110008B69488A5E68B6FBF0F200FB12628AB9EE
:102120001868DA6890420DD2121A83E8140020234E
:1021300083F311880B482146FFF786FF84F311884B
:10214000BDE8F081012303FA04F26B8923EA02035C
:102150006B81CB6823B121460248BDE8F0411847A6
:10216000BDE8F081E80D002000EB810370B5DD686B
:10217000436D6C692668E6604A0156BB1A444FF409
:102180000020C2F810092A6802F00302012A0AB2EC
:102190000ED1D3F8080803EB421410F4807FD4F872
:1021A000000914BF40F0805040F00050C4F800090E
:1021B00003EB4212D2F8000940F00440C2F80009D3
:1021C000D3F83408012202FA01F10143C3F83418AC
:1021D00070BD19B9402E84BF4020206020682E8A2F
:1021E000841940F00050013C1A44B4FBF6F440EA74
:1021F000C440C6E72DE9F041284C666D06EB40135C
:102200000546D3F80879C3F80879F9071AD5D6F83E
:102210001038DA0716D504EB8003D9684B691868C3
:10222000DA6890422CD2121A4FF000081A60C3F8F4
:102230000480202383F3118829462046FFF794FF6A
:1022400088F311883B0619D5D6F83428012303FA00
:1022500005F5154212D0202383F31188236E104810
:102260002B432366D6F8343823EA0505C6F83458DC
:102270000021FEF7C5FF002383F31188BDE8F0813C
:10228000012303FA05F2238923EA020323818B68E1
:10229000002BD7D0294620469847D3E7E80D0020E9
:1022A0004C0E00202DE9F74F8048446D6669A36904
:1022B0001E4016F4805F6661054608D00023036661
:1022C000FFF7E8F903B0BDE8F04F00F09DBC002E29
:1022D00012DAD4F8003E75489F071EBFD4F8003EBE
:1022E00023F00303C4F8003ED4F8043843F001039C
:1022F000C4F80438FFF7F8F9300504D500236B481B
:102300002B66FFF7E5F9B1040CD5D4F8083813F0C3
:10231000060FE36823F470530CBF43F4105343F4E7
:10232000A053E360320704D56B68DB680BB15F48EC
:102330009847F3024ED4B7020CD5D5F85480DFF895
:102340006CA100274FF00109AB6D9B68F9B28B427D
:1023500080F08F80F5060DD5202383F31188A369C3
:10236000534823F01003A3610021FEF749FF002327
:1023700083F311883003D4F8184813D5E10302D54C
:102380000020FFF79FFEA20302D50120FFF79AFE6F
:10239000630302D50220FFF795FE270302D5032031
:1023A000FFF790FE75038DD5E00702D50020FFF7FB
:1023B00021FFA10702D50120FFF71CFF620702D50C
:1023C0000220FFF717FF23077FF57CAF0320FFF7FD
:1023D00011FF77E7D5F854A0DFF8D4B04FF000092B
:1023E000AB6D9B685FFA89F7BB42A4D30AEB471336
:1023F000D3F8002902F44022B2F5802F36D1D3F869
:102400000029002A32DAD3F8002942F09042C3F8BA
:102410000029D3F80029002AFBDB3946686DFFF755
:102420007FFB01232A89BB406FEA030808EA020206
:102430002A8105EB8702D268926822B139461B488F
:1024400001939047019B202282F31188DAF8342807
:1024500008EA0202CAF834282A6E002113435846BB
:102460002B66FEF7CDFE002383F3118809F10109E5
:10247000B6E708EB4112D2F8003B03F44023B3F572
:10248000802F10D1D2F8003B002B0CDA6A8909FAB0
:1024900001F322EA03036B8105EB8103DB68DB6850
:1024A0000BB15046984701374EE700BFE80D0020BA
:1024B0004C0E0020436D03EB4111D1F8003B43F477
:1024C0000013C1F8003B7047436D03EB4111D1F895
:1024D000003943F40013C1F800397047436D03EB32
:1024E0004111D1F8003B23F40013C1F8003B7047C1
:1024F000436D03EB4111D1F8003923F40013C1F807
:10250000003970474FF0804310B51A69920708D51B
:1025100000241C61202383F3118800F0E7FA84F380
:102520001188BDE8104000F06FBB00000E4A136C2C
:1025300043F0010313640D4A936843F00103936071
:102540004FF0804353229A624FF0FF32DA6200224A
:102550009A615A63DA605A6001225A6108211A604E
:102560001C2000F085BD00BF00380240002004E0C0
:1025700000207047FEE70000704700004FF0FF307A
:102580007047000000F0B8BD08B500F06BFB00F02C
:102590006DFABDE8084000F0F9B80000704700008F
:1025A000022906D0032906D00129064818BF0020B9
:1025B000704705487047032A9ABF044800EBC200E1
:1025C00000207047583500080C3500080808002026
:1025D00070B5044608460D46FEF78AFBC6B2204693
:1025E000013403780BB9184670BD32462946FEF710
:1025F00067FB0028F3D1012070BD00002DE9F04FEA
:1026000080469BB008460C461646FEF771FB3A49D9
:10261000C5B22046FFF7DCFF08B10135EDB23749FE
:102620002046FFF7D5FF08B11035EDB2632D01AF9D
:102630000CD8DFF8D490DFF8D4A03D4694F800B071
:10264000BBF1000F1CD185F800B003E021463846ED
:10265000FDF76AFE3846FEF74BFBC0B2431C5B0039
:1026600088E848003370032373700023023619464C
:10267000DAB2904206F1020636D81BB0BDE8F08F00
:10268000BBF1250F2BD107221B492046FEF718FB73
:1026900040B9DAF800302B60DAF804306B600734A8
:1026A0000835CBE7082215492046FEF709FBB0B9EB
:1026B0001349AB1C11F8012F100902F00F0210F89A
:1026C000090012F8092003F8012C0E4A03F8020C45
:1026D000914203F10203EDD118350834AEE785F8D5
:1026E00000B001340135A9E7FA5C06F8022C06F8BF
:1026F000011C0133BCE700BFB8340008C034000837
:102700000F7AFF1F1B7AFF1FD2340008C93400085C
:1027100008B5202383F311880348FEF7BDFE00238C
:1027200083F3118808BD00BFD810002010B50446FF
:10273000052916D8DFE801F016150316161D20230B
:1027400083F311880E4A0121FEF758FF20460D4AF7
:102750000221FEF753FF0C48FEF764FE002383F3CB
:10276000118810BD202383F311880748FEF736FE39
:10277000F4E7202383F311880348FEF747FEEDE7D3
:10278000683400088C340008D810002038B50C4D8F
:102790000C4C0D492A4604F10800FFF72FFF05F104
:1027A000CA0204F110000949FFF728FF05F5CA72B3
:1027B00004F118000649BDE83840FFF71FBF00BF0D
:1027C0009815002008080020E4340008EE340008C2
:1027D000C0340008BFF34F8F024AD368DB03FCD438
:1027E000704700BF003C024008B5094B1B7873B925
:1027F000FFF7F0FF074B1A69002ABFBF064A5A606D
:1028000002F188325A601A6822F480621A6008BDA8
:10281000F6170020003C02402301674508B50B4B2A
:102820001B7893B9FFF7D6FF094B1A6942F00042B3
:102830001A611A6842F480521A601A6822F48052AF
:102840001A601A6842F480621A6008BDF617002008
:10285000003C02400B2870B513D80B4A0B4C137880
:1028600063B90B4E4FF0006144F8231056F8235023
:1028700001330C2B2944F7D10123137054F82000A5
:1028800070BD002070BD00BF28180020F817002080
:1028900078350008014B53F8200070477835000860
:1028A0000C2070470B2810B5044601D9002010BD3C
:1028B000FFF7D0FF064B53F824301844C21A0BB967
:1028C000012010BD12680132F0D1043BF6E700BFD1
:1028D000783500080B2808B51BD8FFF77BFFFFF7FA
:1028E00083FF0D49F323CB60FFF774FFC300DBB216
:1028F00043F4007343F002030B610B6943F480332C
:102900000B61FFF767FFFFF789FFBDE80840FFF79E
:10291000C9BF002008BD00BF003C02402DE9F047C0
:10292000D40715464DD41318B3F1016F49D2324B79
:102930001B68DA0745D5314CFFF756FFF323E360F8
:10294000FFF748FF2F46401A40F20129032F88461F
:1029500001EB000618D8294C40F201197B1A4344B8
:10296000012B01EB000623692FD823F0010323611B
:10297000FFF754FF2846BDE8F087366851F8043C5D
:10298000B34218D1043FE1E7B307E4D1236923F44C
:1029900040732361236943EA090323610431D8F8B2
:1029A00000303360BFF34F8FFFF714FFE368002B55
:1029B000E3D0F323E360236923F001032361FFF7EE
:1029C0002DFF4FF0FF30BDE8F08723F44073236103
:1029D000236943EA090323618A4631F8023B3380C5
:1029E000BFF34F8FFFF7F6FE3688BAF80030B6B265
:1029F000B342B3D0DFE700BF00380240003C0240E2
:102A0000084908B50B7828B153B9FFF7EDFE01234B
:102A10000B7008BD23B1BDE808400870FFF7FEBE8B
:102A200008BD00BFF6170020014B186D704700BFAE
:102A300000280040094B1A6F120407D41A6F42F4A1
:102A400000721A671A6F42F400421A67044A136848
:102A500043F480731360034B1865704700380240DD
:102A60000070004000280040FEE7000010B5184C40
:102A7000FEF7A8FAFEF722FA00F0A4F88022154922
:102A80002046FEF757FB012344F8180C0374124B41
:102A9000124AD96821F4E0610904090C0A4310497B
:102AA000DA60CA6842F08072CA600E490A6842F071
:102AB00001020A601022DA77202283F82220002304
:102AC00083F3118862B60848BDE81040FEF760BB8A
:102AD000C80D0020A835000800ED00E00003FA054D
:102AE000F0ED00E0001000E0B03500082DE9F843FB
:102AF0001A4C4FF0804300256769586A04F11408A6
:102B00002E46226ABB68811A8B420CD96169414505
:102B100022D013441B1A022B2CBFC0180230BDE870
:102B2000F843FEF745BD134423623B68D7F80C9089
:102B3000C3F8048043456361FD6001D1FEF732FDB7
:102B400086F311883869C847202383F311884FF032
:102B500080436769586AD4E7BDE8F883A00D002078
:102B6000034B59685A68521A9042FBD8704700BF0D
:102B7000001000E083691943037C81610A2B03D1B3
:102B80004369194205D170470B2B06D143698B432A
:102B900003D100234361FEF71DBA704770B5046886
:102BA00005460E46AC4200D170BDE3683343E36096
:102BB00016B12269134203D0A1686068FFF7DAFFFB
:102BC0002468EFE7034B044A1A60044B044A1A6076
:102BD000704700BF2C1A0020301A0020281A00204D
:102BE0000000022080B5074A536823F0010300AFBC
:102BF0005360EFF30983683383F30988002383F379
:102C0000118880BD30EF00E098B5202300AF83F33A
:102C10001188104B5B6813F4006318D0F1EE103A82
:102C2000EFF309844FF0807344F84C3C0A4BDB68A7
:102C300044F8083CA4F1680383F30988FEF750FACE
:102C400018B1064B44F8503C98BD054BFAE783F3A6
:102C5000118898BD00ED00E030EF00E0210300088E
:102C60002403000808B500F019FA064800F0CAFA73
:102C7000FEF7A2FCFEF76AFBFFF790FCBDE80840F8
:102C8000FEF786BC6C33000830B5039C0172043338
:102C900004FB0325C361049B03630021059B0060C3
:102CA0004060C1604261026185610462426281628A
:102CB000C162436330BD00000022416A416101618D
:102CC000C2608262C2626FF00101FEF7BFBA00000B
:102CD00003694269934203D1C2680AB10020704778
:102CE000181D704703691960C2680132C260C26969
:102CF000134482690361934224BF436A0361002144
:102D0000FEF798BA38B504460D46E3683BB16269F0
:102D1000131D1268A3621344E362002038BD237AB6
:102D200033B929462046FEF775FA0028EDDA38BD9A
:102D30006FF00100FBE70000C368C269013BC3609C
:102D40004369134482694361934224BF436A4361E8
:102D500000238362036B03B11847704770B52023CB
:102D6000044683F31188866A3EB9FFF7CBFF054618
:102D700018B186F31188284670BDA36AE26A13F879
:102D8000015BA362934202D32046FFF7D5FF0023E5
:102D900083F31188EFE700002DE9F74F1F46044643
:102DA0000E469146202383F311884FF0804800257A
:102DB000D8F82430FB18009307F1FF3AAB46A36A1A
:102DC000ABB91AF1030F06D939462046FFF79AFF2F
:102DD00068B1002305E0D8F82410009A511A8F42F8
:102DE000F3D283F31188284603B0BDE8F08FA16ABF
:102DF000E36AA9EB05025B1A934228BF1346402BF6
:102E00001CD9334601F1400251F8040B43F8040B7E
:102E10009142F9D1A36A40334036A3624035A26A99
:102E2000E36A9A4202D32046FFF786FF8BF31188AC
:102E30004D45D8D2202383F31188C0E71A46304687
:102E40000193FDF733FF019BA26A1A441E44A2625C
:102E50001D44E4E710B5029C0172043303FB042116
:102E6000C36100238362C362039B0363049B00600E
:102E70004060C460426102618161046242624363F6
:102E800010BD0000026AC260426A42610261002213
:102E90008262C2626FF00101FEF7D8B9436902692C
:102EA0009A4203D1C2680AB100207047184650F810
:102EB000043B0B6070470000C368C2690133C36004
:102EC0004369134482694361934224BF436A436167
:102ED0000021FEF7AFB9000038B504460D46E3689F
:102EE0003BB123691A1DA262E2691344E362002028
:102EF00038BD237A33B929462046FEF78BF90028DE
:102F0000EDDA38BD6FF00100FBE7000003691960DE
:102F1000C268013AC260C269134482690361934284
:102F200024BF436A036100238362036B03B1184724
:102F30007047000070B5202304460E4683F31188C5
:102F4000856A35B91146FFF7C7FF10B185F31188BF
:102F500070BDA36A1E70A36AE26A01339342A36242
:102F600004D3E16920460439FFF7D0FF002080F345
:102F7000118870BD2DE9F74F1F4604460D46914656
:102F8000202383F311884FF080480026D8F824309E
:102F9000FB18009307F1FF3AB346A36AABB91AF1E5
:102FA000030F06D939462046FFF796FF68B1002384
:102FB00005E0D8F82410009A511A8F42F3D283F317
:102FC0001188304603B0BDE8F08FA06AE36AA9EB30
:102FD00006021B1A934228BF1346402B1CD905F149
:102FE000400355F8042B40F8042B9D42F9D1A36A05
:102FF0004033A3624036A26AE36A9A4204D3E1698D
:1030000020460439FFF782FF8BF311884E45D8D252
:10301000202383F31188C0E71A4629460193FDF760
:1030200045FE019BA26A1A441D44A2621E44E2E7C7
:10303000026943699A4203D1C3681BB918467047B5
:103040000023FBE7836A002BF8D0043B9B1AF5D0E2
:103050001360C368013BC360C3691A44836902619A
:103060009A4224BF436A0361002383620123E5E798
:1030700000F1604300F01F02400903F561430901BC
:103080008000C9B200F1604083F8001300F5614090
:1030900001239340C0F8803103607047144B002136
:1030A0001A694FF0FF321A61196158695A61596102
:1030B000186A60F0805018621962586A5A62596240
:1030C0001A6C42F080521A640A4A106840F4807008
:1030D0001060186F00F44070B0F5007F1EBF4FF411
:1030E000803018671967536823F400735360704782
:1030F0000038024000700040314B4FF080521A649B
:10310000304A4FF4404111601A6842F001021A60DF
:103110001A689207FCD59A6822F003029A609A68AE
:103120009A60274B19469A6812F00C02FBD1186876
:1031300000F0F90018609A601A6842F480321A6050
:103140000B689B03FCD54B6F43F001034B671C4B93
:103150005A6F9007FCD51C4A5A601A6842F0807278
:103160001A60184A53685904FCD5154B1A68920125
:10317000FCD5164A9A60164B1A68164B9A42164BA3
:103180001AD1164A1168164A914215D140F2051219
:103190001A600B4B9A6842F002029A609A6802F039
:1031A0000C02082AFAD15A6C42F480425A645A6ED0
:1031B00042F480425A66704740F20572E8E700BF69
:1031C00000380240007000401854400700948838CE
:1031D000002004E011640020003C024000ED00E00B
:1031E00041C20F414B6843608B688360CB68C3600A
:1031F0000B6943614B6903628B6943620B6803602F
:10320000704700001C4B0246186B10B540F2FF14CB
:1032100020431863196D1948214319651146FFF7BA
:10322000E1FF174802F11C01FFF7DCFF154802F12E
:103230003801FFF7D7FF144802F15401FFF7D2FF1E
:10324000124802F17001FFF7CDFF114802F18C0125
:10325000FFF7C8FF0F4802F1A801FFF7C3FF0E48B0
:1032600002F1C401FFF7BEFF0C4802F1E001BDE826
:103270001040FFF7B7BF00BF003802400000024017
:103280000004024000080240000C0240001002400E
:103290000014024000180240001C024000200240BE
:1032A000121012131211000053544D3332463F3F97
:1032B0003F00000000000000A83200083F000000AE
:1032C00013040000E43200083F000000190400006D
:1032D000EE3200083F00000021040000F832000830
:1032E0003F00000053544D3332463430780053547D
:1032F0004D3332463432780053544D3332463434F1
:1033000036585800C9120008B5120008F11200081A
:10331000DD120008E9120008D5120008C1120008E9
:10332000AD120008000000000100000000000000D5
:1033300000000000FD160008D9190008751A0008E1
:1033400040004000C0100020C0100020010000001C
:10335000D0100020800000004001000003000000A9
:103360007573625F70756D70000000000000800270
:1033700000000000AAAAAAAA00000000FFFF0000A7
:103380000000000000A00A0004000000000000008F
:10339000AAAAAAAA00000000FDFF00000000000089
:1033A000000000000000000000000000AAAAAAAA75
:1033B00000000000FFFF000000000000000000000F
:1033C0000000000000000000AAAAAAAA0000000055
:1033D000FFFF0000000000000000000000000001EE
:1033E00000000000AAAAAAAA00000000FFEF000047
:1033F00000000000000000000000000000000000CD
:10340000AAAAAAAA00000000FFFF00000000000016
:10341000000000000000000000000000AAAAAAAA04
:1034200000000000FFFF000000000000000000009E
:1034300000000000000000000A0000000000000082
:103440000300000000000000000000000000000079
:10345000000000000000000000000000000000006C
:10346000000000000000000002000000000000005A
:10347000E51400084D1500084000400068150020C4
:10348000781500200200000000000000030000008A
:10349000000000008D150008000000001000000072
:1034A000881500200000000001000000000000005E
:1034B000E80D00200101020025424F415244250041
:1034C0002553455249414C25006D696E692D70693F
:1034D000780030313233343536373839414243445D
:1034E000454600004172647550696C6F7400254256
:1034F0004F415244252D424C000000002D2700086A
:10350000A1250008511400081127000843000000FD
:103510001435000809024300020100C0320904000A
:103520000001020201000524001001052401000130
:10353000042402020524060001070582030800FF97
:1035400009040100020A0000000705010240000012
:1035500007058102400000001200000060350008ED
:1035600012011001020000408304405700020102D2
:1035700003010000040309040040000000400000B3
:1035800000400000004000000000010000000200B8
:103590000000020000000200000002000000020023
:1035A00000000200000002006D61696E0000000072
:1035B000C835000830180020281A0020010000003B
:1035C000692A00080000000069646C6500000000C2
:1035D000FF00960000000008040000007435000899
:1035E00000000000000000000000000000000000DB
:1035F0000000000000000000FFFFFFFFFFFFFFFFD3
:10360000FFFFFFFFFFFFFFFFFFFFFFFFFFFFFFFFCA
:10361000FFFFFFFFFFFFFFFFFFFFFFFFFFFFFFFFBA
:10362000FFFFFFFFFFFFFFFFFFFFFFFFFFFFFFFFAA
:10363000FFFFFFFFFFFFFFFFFFFFFFFFFFFFFFFF9A
:10400000000400208552000865AA060869AA06086F
:10401000B9AA060869AA060891AA060879F10A0849
:1040200079F10A0879F10A0879F10A08B9800B08D0
:1040300079F10A0879F10A0879F10A0879F10A0890
:1040400079F10A08458C0B08158D0B08498D0B0872
:1040500079F10A0879F10A08718A0B08A18A0B081C
:10406000D18A0B08018B0B08318B0B0821170B0829
:104070004D170B087D170B08AD170B08DD170B0844
:1040800009180B0839180B08D9150B0879F10A081B
:1040900079F10A0879F10A0879F10A08618B0B08AD
:1040A00079F10A0879F10A0879F10A0879F10A0820
:1040B00079F10A0879F10A0879F10A085D200B08FC
:1040C00075200B08A1200B08B9200B0879F10A080C
:1040D00079F10A0879F10A08293D0B08413D0B08DE
:1040E000CD8B0B08798C0B08AD8C0B0879F10A0885
:1040F0008D390B0879F10A0875390B0869180B0816
:1041000079F10A0835320B08AD370B0879F10A0846
:10411000593D0B0879F10A0879F10A0879F10A0882
:1041200099180B08C5180B08F5180B0825190B086A
:1041300055190B0879F10A0879F10A0879F10A088A
:1041400079F10A0879F10A0879F10A08752C0B0847
:1041500081190B08B1190B08E1190B0879F10A084C
:1041600079F10A0879F10A0879F10A0879F10A085F
:10417000E18C0B0879F10A0879F10A0879F10A084B
:1041800079F10A0879F10A0879F10A0879F10A083F
:1041900079F10A0879F10A0879F10A0879F10A082F
:1041A00079F10A0879F10A0879F10A0879F10A081F
:1041B00079F10A0879F10A0879F10A0879F10A080F
:1041C00079F10A0879F10A0879F10A0879F10A08FF
:1041D00079F10A0879F10A0879F10A0879F10A08EF
:1041E000CD7C0108EDAC0108E5AC030889040408A6
:1041F000ED0604081DD7040839DE04081DE4040890
:10420000ADFF04085181050895AE060829C60908C6
:10421000B9D1090835E90908DD060A082DF10A08AF
:10422000D0400B1CD1409C46203AD3401843524208
:104230006346934018437047D0400B1C1141203A0D
:1042400003D49C461341184363465242934018439B
:10425000704700BF9140031C90409C46203A934019
:10426000194352426346D3401943704781F00041DD
:1042700002E000BF83F0004330B54FEA41044FEA4B
:10428000430594EA050F08BF90EA020F1FBF54EAE6
:10429000000C55EA020C7FEA645C7FEA655C00F082
:1042A000E2804FEA5454D4EB5555B8BF6D420CDD53
:1042B0002C4480EA020281EA030382EA000083EAD6
:1042C000010180EA020281EA0303362D88BF30BD76
:1042D00011F0004F4FEA01314FF4801C4CEA1131CC
:1042E00002D0404261EB410113F0004F4FEA03332B
:1042F0004CEA133302D0524263EB430394EA050FB6
:1043000000F0A780A4F10104D5F1200E0DDB02FA24
:104310000EFC22FA05F2801841F1000103FA0EF2B8
:10432000801843FA05F359410EE0A5F120050EF17E
:10433000200E012A03FA0EFC28BF4CF0020C43FAAF
:1043400005F3C01851EBE37101F0004507D54FF0BC
:10435000000EDCF1000C7EEB00006EEB0101B1F50C
:10436000801F1BD3B1F5001F0CD349085FEA300052
:104370004FEA3C0C04F101044FEA445212F5800F5D
:1043800080F09A80BCF1004F08BF5FEA500C50F1FA
:10439000000041EB045141EA050130BD5FEA4C0CDD
:1043A000404141EB010111F4801FA4F10104E9D166
:1043B00091F0000F04BF01460020B1FA81F308BF5D
:1043C0002033A3F10B03B3F120020CDA0C3208DD29
:1043D00002F1140CC2F10C0201FA0CF021FA02F104
:1043E0000CE002F11402D8BFC2F1200C01FA02F174
:1043F00020FA0CFCDCBF41EA0C019040E41AA2BF99
:1044000001EB0451294330BD6FEA04041F3C1CDA60
:104410000C340EDC04F11404C4F1200220FA04F080
:1044200001FA02F340EA030021FA04F345EA03012A
:1044300030BDC4F10C04C4F1200220FA02F001FAEC
:1044400004F340EA0300294630BD21FA04F029466E
:1044500030BD94F0000F83F4801306BF81F4801107
:104460000134013D4EE77FEA645C18BF7FEA655C7A
:1044700029D094EA050F08BF90EA020F05D054EA4C
:10448000000C04BF1946104630BD91EA030F1EBF51
:104490000021002030BD5FEA545C05D14000494155
:1044A00028BF41F0004130BD14F580043CBF01F548
:1044B000801130BD01F0004545F0FE4141F470012E
:1044C0004FF0000030BD7FEA645C1ABF1946104609
:1044D0007FEA655C1CBF0B46024650EA013406BF0A
:1044E00052EA033591EA030F41F4002130BD00BFC9
:1044F00090F0000F04BF0021704730B54FF4806486
:1045000004F132044FF000054FF0000150E700BF06
:1045100090F0000F04BF0021704730B54FF4806465
:1045200004F1320410F0004548BF40424FF0000152
:104530003EE700BF42004FEAE2014FEA31014FEA95
:1045400002701FBF12F07F4393F07F4F81F06051E4
:10455000704792F0000F14BF93F07F4F704730B553
:104560004FF4607401F0004521F0004120E700BFE6
:1045700050EA010208BF704730B54FF000050AE06D
:1045800050EA010208BF704730B511F0004502D56E
:10459000404261EB41014FF4806404F132045FEA70
:1045A000915C3FF4DCAE4FF003025FEADC0C18BF15
:1045B00003325FEADC0C18BF033202EBDC02C2F10B
:1045C000200300FA03FC20FA02F001FA03FE40EA9D
:1045D0000E0021FA02F11444C1E600BF70B54FF09D
:1045E000FF0C4CF4E06C1CEA11541DBF1CEA13557F
:1045F00094EA0C0F95EA0C0F00F0DEF82C4481EAE7
:10460000030621EA4C5123EA4C5350EA013518BF06
:1046100052EA033541F4801143F4801338D0A0FBF3
:1046200002CE4FF00005E1FB02E506F00042E0FBA0
:1046300003E54FF00006E1FB03569CF0000F18BFA6
:104640004EF0010EA4F1FF04B6F5007F64F540744E
:1046500004D25FEA4E0E6D4146EB060642EAC621E1
:1046600041EA55514FEAC52040EA5E504FEACE2E4E
:10467000B4F1FD0C88BFBCF5E06F1ED8BEF1004F51
:1046800008BF5FEA500E50F1000041EB045170BDCD
:1046900006F0004646EA010140EA020081EA030111
:1046A000B4EB5C04C2BFD4EB0C0541EA045170BD0D
:1046B00041F480114FF0000E013C00F3AB8014F187
:1046C000360FDEBF002001F0004170BDC4F10004D0
:1046D000203C35DA0C341BDC04F11404C4F1200551
:1046E00000FA05F320FA04F001FA05F240EA0200AC
:1046F00001F0004221F0004110EBD37021FA04F6E2
:1047000042EB06015EEA430E08BF20EAD37070BD9B
:10471000C4F10C04C4F1200500FA04F320FA05F0FA
:1047200001FA04F240EA020001F0004110EBD370FC
:1047300041F100015EEA430E08BF20EAD37070BD6C
:10474000C4F1200500FA05F24EEA020E20FA04F345
:1047500001FA05F243EA020321FA04F001F00041F4
:1047600021FA04F220EA020000EBD3705EEA430E65
:1047700008BF20EAD37070BD94F0000F0FD101F094
:104780000046400041EB010111F4801F08BF013CCD
:10479000F7D041EA060195F0000F18BF704703F00B
:1047A0000046520043EB030313F4801F08BF013D92
:1047B000F7D043EA0603704794EA0C0F0CEA13554E
:1047C00018BF95EA0C0F0CD050EA410618BF52EA08
:1047D0004306D1D181EA030101F000414FF000000E
:1047E00070BD50EA410606BF1046194652EA43061C
:1047F00019D094EA0C0F02D150EA013613D195EA90
:104800000C0F05D152EA03361CBF104619460AD1D7
:1048100081EA030101F0004141F0FE4141F47001E1
:104820004FF0000070BD41F0FE4141F4780170BDD1
:1048300070B54FF0FF0C4CF4E06C1CEA11541DBF36
:104840001CEA135594EA0C0F95EA0C0F00F0A7F838
:10485000A4EB050481EA030E52EA03354FEA013165
:1048600000F088804FEA03334FF0805545EA131378
:1048700043EA12634FEA022245EA111545EA106540
:104880004FEA00260EF000419D4208BF964244F1D7
:10489000FD0404F5407402D25B084FEA3202B61AF6
:1048A00065EB03055B084FEA32024FF480104FF4CA
:1048B000002CB6EB020E75EB030E22BFB61A75463E
:1048C00040EA0C005B084FEA3202B6EB020E75EBD1
:1048D000030E22BFB61A754640EA5C005B084FEA39
:1048E0003202B6EB020E75EB030E22BFB61A754606
:1048F00040EA9C005B084FEA3202B6EB020E75EB11
:10490000030E22BFB61A754640EADC0055EA060ED1
:1049100018D04FEA051545EA16754FEA06164FEA14
:10492000C30343EA52734FEAC2025FEA1C1CC0D1C0
:1049300011F4801F0BD141EA00014FF000004FF04D
:10494000004CB6E711F4801F04BF01430020B4F10E
:10495000FD0C88BFBCF5E06F3FF6AFAEB5EB030CC6
:1049600004BFB6EB020C5FEA500C50F1000041EBC3
:10497000045170BD0EF0004E4EEA113114EB5C0490
:10498000C2BFD4EB0C0541EA045170BD41F4801163
:104990004FF0000E013C90E645EA060E8DE60CEA6B
:1049A000135594EA0C0F08BF95EA0C0F3FF43BAF88
:1049B00094EA0C0F0AD150EA01347FF434AF95EA3F
:1049C0000C0F7FF425AF104619462CE795EA0C0F23
:1049D00006D152EA03353FF4FDAE1046194622E7F0
:1049E00050EA410618BF52EA43067FF4C5AE50EACA
:1049F00041047FF40DAF52EA43057FF4EBAE12E7BA
:104A00004FF0FF3C06E000BF4FF0010C02E000BF9A
:104A10004FF0010C4DF804CD4FEA410C7FEA6C5C7D
:104A20004FEA430C18BF7FEA6C5C1BD001B050EA20
:104A3000410C0CBF52EA430C91EA030F02BF90EA0B
:104A4000020F0020704710F1000F91EA030F58BFCA
:104A5000994208BF90422CBFD8176FEAE37040F02C
:104A6000010070474FEA410C7FEA6C5C02D150EACA
:104A7000013C07D14FEA430C7FEA6C5CD6D152EA85
:104A8000033CD3D05DF8040B704700BF844610464A
:104A900062468C461946634600E000BF01B5FFF749
:104AA000B7FF002848BF10F1000F01BD4DF808ED19
:104AB000FFF7F4FF0CBF012000205DF808FB00BFEA
:104AC0004DF808EDFFF7EAFF34BF012000205DF844
:104AD00008FB00BF4DF808EDFFF7E0FF94BF012091
:104AE00000205DF808FB00BF4DF808EDFFF7CEFF92
:104AF00094BF012000205DF808FB00BF4DF808EDD1
:104B0000FFF7C4FF34BF012000205DF808FB00BFA1
:104B10004FEA410C7FEA6C5C02D150EA013C0AD1B9
:104B20004FEA430C7FEA6C5C02D152EA033C02D1AB
:104B30004FF0000070474FF0010070474FEA41020C
:104B400012F5001215D211D56FF47873B3EB6252DF
:104B500012D94FEAC12343F0004343EA505311F006
:104B6000004F23FA02F018BF404270474FF0000098
:104B7000704750EA013005D111F0004008BF6FF0D6
:104B8000004070474FF00000704700BF4A0011D24C
:104B900012F5001211D20DD56FF47873B3EB625297
:104BA0000ED44FEAC12343F0004343EA505323FAA3
:104BB00002F070474FF00000704750EA013002D118
:104BC0004FF0FF3070474FF0000070474FEA41024E
:104BD000B2F1E04324BFB3F5001CDCF1FE5C0DD95B
:104BE00001F0004C4FEAC0024CEA5070B2F1004FA5
:104BF00040EB830008BF20F00100704711F0804FA8
:104C000021D113F13872BCBF01F00040704741F46C
:104C100080114FEA5252C2F11802C2F1200C10FA70
:104C20000CF320FA02F018BF40F001004FEAC12354
:104C30004FEAD32303FA0CFC40EA0C0023FA02F3F8
:104C40004FEA4303CCE77FEA625307D150EA0133CE
:104C50001EBF4FF0FE4040F44000704701F000409E
:104C600040F0FE4040F40000704700BF80F000407C
:104C700002E000BF81F0004142001FBF5FEA410334
:104C800092EA030F7FEA226C7FEA236C6AD04FEA34
:104C90001262D2EB1363C1BFD21841404840414079
:104CA000B8BF5B42192B88BF704710F0004F40F42B
:104CB000000020F07F4018BF404211F0004F41F447
:104CC000000121F07F4118BF494292EA030F3FD013
:104CD000A2F1010241FA03FC10EB0C00C3F1200326
:104CE00001FA03F100F0004302D5494260EB4000B5
:104CF000B0F5000F13D3B0F1807F06D340084FEA20
:104D0000310102F10102FE2A51D2B1F1004F40EB14
:104D1000C25008BF20F0010040EA0300704749007C
:104D200040EB000010F4000FA2F10102EDD1B0FA47
:104D300080FCACF1080CB2EB0C0200FA0CF0AABF3C
:104D400000EBC25052421843BCBFD04018437047DA
:104D500092F0000F81F4000106BF80F400000132E0
:104D6000013BB5E74FEA41037FEA226C18BF7FEAB7
:104D7000236C21D092EA030F04D092F0000F08BFF9
:104D80000846704790EA010F1CBF0020704712F0E0
:104D90007F4F04D1400028BF40F00040704712F11F
:104DA00000723CBF00F50000704700F0004343F084
:104DB000FE4040F4000070477FEA226216BF0846BA
:104DC0007FEA23630146420206BF5FEA412390EA7D
:104DD000010F40F4800070474FF0000304E000BF73
:104DE00010F0004348BF40425FEA000C08BF704724
:104DF00043F0964301464FF000001CE050EA0102E8
:104E000008BF70474FF000030AE000BF50EA0102FC
:104E100008BF704711F0004302D5404261EB4101E9
:104E20005FEA010C02BF84460146002043F0B6430E
:104E300008BFA3F18053A3F50003BCFA8CF2083A33
:104E4000A3EBC25310DB01FA02FC634400FA02FC3C
:104E5000C2F12002BCF1004F20FA02F243EB020043
:104E600008BF20F00100704702F1200201FA02FCA5
:104E7000C2F1200250EA4C0021FA02F243EB020098
:104E800008BF20EADC7070477BB972B90029BEBF49
:104E900000204FF0004106E008BF00281CBF6FF063
:104EA00000414FF0FF3000F0EBB9ADF1080C6DE9B7
:104EB00004CE002909DB002B1ADB00F073F8DDF8C3
:104EC00004E0DDE9022304B07047404261EB410198
:104ED000002B1BDB00F066F8DDF804E0DDE90223BF
:104EE00004B0404261EB4101524263EB430370471F
:104EF000524263EB430300F055F8DDF804E0DDE9CE
:104F0000022304B0404261EB41017047524263EB1F
:104F1000430300F047F8DDF804E0DDE9022304B0C4
:104F2000524263EB4303704753B94AB9002908BFA3
:104F300000281CBF4FF0FF314FF0FF3000F0A0B948
:104F4000ADF1080C6DE904CE00F02CF8DDF804E0BA
:104F5000DDE9022304B07047D0B5FFF7EBFA002279
:104F60000E4B06460F46FFF739FBFFF70FFE0446D0
:104F7000FFF7BEFA00220A4BFFF730FB02460B4652
:104F800030463946FFF776F9FFF700FE2346002248
:104F900042EA000210461946D0BD00BF0000F03DB5
:104FA0000000F0412DE9F0478C460D460446089E6E
:104FB000002B51D18A4217466DD9B2FA82FEBEF15A
:104FC000000F0BD0CEF1200C01FA0EF520FA0CFCEC
:104FD00002FA0EF74CEA050C00FA0EF44FEA174AF3
:104FE000250CBCFBFAF81FFA87F90AFB18CC45EA36
:104FF0000C4508FB09F3AB420AD9ED1908F1FF3261
:1050000080F02381AB4240F22081A8F102083D44A8
:10501000ED1AA4B2B5FBFAF00AFB105544EA0544B8
:1050200000FB09F9A14509D9E41900F1FF3380F02B
:105030000A81A14540F2078102383C44A4EB0904EF
:1050400040EA08400021002E61D024FA0EF400232B
:1050500034607360BDE8F0878B4207D9002E54D0CE
:10506000002186E821000846BDE8F087B3FA83F105
:10507000002940F08E80AB4202D3824200F2FA80D7
:10508000841A65EB03050120AC46002E3FD086E86C
:105090001010BDE8F08712B90127B7FBF2F7B7FA95
:1050A00087FEBEF1000F34D1EB1B3A0C1FFA87FCD0
:1050B0000121B3FBF2F8250C02FB183345EA034546
:1050C0000CFB08F3AB4207D9ED1908F1FF3002D20F
:1050D000AB4200F2D1808046ED1AA3B2B5FBF2F0EC
:1050E00002FB105543EA05440CFB00FCA44507D91C
:1050F000E41900F1FF3302D2A44500F2B88018464B
:10510000A4EB0C0440EA08409DE731463046BDE878
:10511000F087CEF1200405FA0EF307FA0EF720FA15
:1051200004F83A0C25FA04F448EA0308B4FBF2F157
:105130004FEA184502FB11441FFA87FC45EA044573
:1051400001FB0CF3AB4200FA0EF409D9ED1901F1A1
:10515000FF3080F08A80AB4240F2878002393D44C4
:10516000EB1A1FFA88F5B3FBF2F002FB103345EAA5
:10517000034500FB0CF3AB4207D9ED1900F1FF38F2
:105180006FD2AB426DD902383D44EB1A40EA01417F
:105190008FE7C1F1200722FA07F88B4005FA01F4E6
:1051A00048EA030320FA07FE4FEA134CFD404EEA9B
:1051B000040EB5FBFCF94FEA1E440CFB19551FFA0F
:1051C00083F844EA054509FB08F4AC4202FA01F20F
:1051D00000FA01FA08D9ED1809F1FF3043D2AC42C8
:1051E00041D9A9F102091D442D1B1FFA8EFEB5FB02
:1051F000FCF00CFB10554EEA054400FB08F8A045F6
:1052000007D9E41800F1FF3529D2A04527D9023883
:105210001C4440EA0940A4EB0804A0FB02894C4569
:10522000C6464D4615D312D056B1BAEB0E0364EB09
:10523000050404FA07F7CB401F43CC403760746085
:105240000021BDE8F0871846F8E69046E0E6C24542
:10525000EAD2B8EB020E69EB03050138E4E7284611
:10526000D7E7404691E78146BEE7014678E7023836
:105270003C4445E7084608E7A8F102083D442BE70F
:10528000704700BF72B6374880F3098836484EF63B
:105290000851CEF20001086040F20000CCF200009C
:1052A0004EF63471CEF200010860BFF34F8FBFF3AA
:1052B0006F8F40F20000C0F2F0004EF68851CEF23F
:1052C00000010860BFF34F8FBFF36F8F4FF00000F6
:1052D000E1EE100A4EF63C71CEF2000108600620A5
:1052E00080F31488BFF36F8FA9F028FFB1F06CFD35
:1052F0004FF055301D491E4A91423CBF41F8040B06
:10530000FAE71C49174A91423CBF41F8040BFAE7FF
:1053100019491A4A1A4B9A423EBF51F8040B42F8F7
:10532000040BF8E700201749174A91423CBF41F8A7
:10533000040BFAE7A9F006FFB1F048FD134C144D39
:10534000AC4203DA54F8041B8847F9E70EF092F9EF
:10535000104C114DAC4203DA54F8041B8847F9E7AE
:10536000A9F0EEBE00080020004000080000002068
:105370000004002000040020A8410D0800080020BF
:105380004C1400205014002040EE0020E0410008A2
:105390002042000820420008204200082DE9F04F7A
:1053A0002DED108AC1F80CD0C3689D46BDEC108A63
:1053B000BDE8F08FAAF074FB002383F31188284620
:1053C000A0470020AAF050FAAAF064FBAAF066F900
:1053D000AAF066FB00DFFEE794329FE5F0412DE97D
:1053E0000251C0E3030055E10040A0E10060A0E1EC
:1053F000070000DA7C329FE5030055E14F0000CA48
:10540000000050E370029FD570029FC5F041BDE8D7
:105410001EFF2FE168329FE5030055E1540000CAEA
:10542000310455E3490000BA0070E0E30410A0E144
:105430000400A0E1081200FA0010A0E10080A0E141
:10544000051200FA0050A0E138129FE5021200FA9E
:1054500034129FE507FEFFFA0510A0E1FE1100FAE5
:1054600028129FE503FEFFFA0510A0E1FA1100FAE9
:105470001C129FE5FFFDFFFA0510A0E1F61100FAEE
:1054800010129FE5FBFDFFFA0510A0E1F21100FAF2
:1054900004129FE5F7FDFFFA0810A0E1EE1100FAF3
:1054A000F8119FE50080A0E10500A0E1EA1100FAF3
:1054B000EC119FE5EEFDFFFA0510A0E1E61100FA00
:1054C000E0119FE5EAFDFFFA0510A0E1E21100FA04
:1054D000D4119FE5E6FDFFFA0510A0E1DE1100FA08
:1054E000C8119FE5E2FDFFFA0510A0E1DA1100FA0C
:1054F000010077E30010A0E10800A0E13200000AFB
:10550000AC519FE5DBFDFFFA0410A0E1D21100FAD7
:10551000073185E0101093E5D5FDFFFA0410A0E1F6
:10552000D3FDFFFA0010A0E1070195E7D0FDFFFAD7
:10553000000056E3020180B2F041BDE81EFF2FE1FA
:105540000010A0E1CBFDFFFAF041BDE81EFF2FE106
:1055500060119FE5C7FDFFFAFE15A0E39C1200FA5B
:10556000000050E30400A011AEFFFF0AF041BDE8C7
:105570001EFF2FE1B80000EB3C319FE5030055E131
:105580000040A0E1170000CA1A3743E2030055E1CA
:105590002B0000CA0010A0E1B6FDFFFAFE15A0E343
:1055A000B3FDFFFA0111A0E30050A0E10400A0E167
:1055B000B0FDFFFA0010A0E10500A0E1001200FA22
:1055C0000070A0E30040A0E197FFFFEAA9FDFFFA09
:1055D0000410A0E1A01100FA0010A0E10400A0E175
:1055E000A3FDFFFA88FFFFEAD0309FE5030055E1F5
:1055F0000D0000CAFF15A0E39DFDFFFAFF15A0E313
:105600000050A0E10400A0E1931100FAFE15A0E310
:1056100098FDFFFA0010A0E10500A0E1E81100FAF2
:105620000270A0E30040A0E17FFFFFEA0010A0E1CC
:105630008C009FE5E21100FA0370A0E30040A0E1B6
:1056400079FFFFEAFE15A0E389FDFFFAFE15A0E34E
:105650000050A0E10400A0E186FDFFFA0010A0E1E7
:105660000500A0E1D61100FA0170A0E30040A0E11E
:105670006DFFFFEAFFFF7F500000807FDB0FC9BF97
:10568000DB0FC93FFFFFDF3ED769853C59DA4B3D51
:10569000356B883D6E2EBA3D2549123EABAAAA3E17
:1056A00021A215BD6BF16E3D95879D3D388EE33D82
:1056B000CDCC4C3E20950B08CAF24971FFFF973FB5
:1056C000FFFF1B40000080BFF0412DE90271C0E3E5
:1056D000A74BA0E17F4044E2160054E30050A0E154
:1056E000120000CA000054E30080A0E1190000BAD3
:1056F00094709FE55774A0E1070010E10E00000AC6
:1057000088109FE55BFDFFFA0010A0E3301200FA5D
:10571000000050E30800000A000055E30235A0C372
:10572000538485C00700C8E1F041BDE81EFF2FE1AA
:105730005C309FE5030057E10200008A0500A0E10C
:10574000F041BDE81EFF2FE10010A0E149FDFFFA86
:10575000F041BDE81EFF2FE130109FE545FDFFFA47
:105760000010A0E31A1200FA000050E3F2FFFF0A53
:10577000000055E30201A0B3F0FFFFBA000057E3B9
:10578000FE05A013EDFFFF1AEBFFFFEAFFFF7F000E
:10579000CAF24971FFFF7F7F04E02DE5B0209FE54D
:1057A0000231C0E3020053E10CD04DE2150000DAF3
:1057B000A0209FE5020053E1040000DA0010A0E100
:1057C0002BFDFFFA0CD08DE204E09DE41EFF2FE1DB
:1057D0000D10A0E1C70A00EB032000E2010052E334
:1057E0001200000A020052E30B00000A000052E31C
:1057F0001300000A0120A0E304109DE500009DE5D0
:10580000F60E00EBEEFFFFEA0010A0E3130C00EB36
:105810000CD08DE204E09DE41EFF2FE104109DE515
:1058200000009DE50D0C00EB020180E2E4FFFFEAC1
:1058300004109DE500009DE5E80E00EB020180E20A
:10584000DFFFFFEA04109DE500009DE5030C00EB7F
:10585000DBFFFFEAD80F493FFFFF7F7F0201C0E374
:105860001EFF2FE170402DE90140A0E10050A0E1B2
:10587000250000EB000050E30200001A0400A0E144
:105880007040BDE81EFF2FE10400A0E11E0000EB08
:10589000000050E30400000A0410A0E10500A0E1AC
:1058A000CB1100FA000050E3F3FFFF0A0500A0E16E
:1058B0007040BDE81EFF2FE170402DE90140A0E1DE
:1058C0000050A0E1100000EB000050E30200001ABD
:1058D0000400A0E17040BDE81EFF2FE10400A0E13C
:1058E000090000EB000050E30400000A0410A0E1EE
:1058F0000500A0E1A71100FA000050E3F3FFFF0A42
:105900000500A0E17040BDE81EFF2FE10201D0E3D9
:105910000100001A0200A0E31EFF2FE1023540E261
:105920007F0453E30100002A0400A0E31EFF2FE1DF
:1059300024309FE5012040E2030052E10100008A8B
:105940000300A0E31EFF2FE110309FE5003063E06D
:10595000000073E20300A0E01EFF2FE1FEFF7F00C6
:105960000000807F10402DE9C50100EB08109FE585
:10597000131100FA1040BDE81EFF2FE11872313FED
:10598000A03BA0E1FF3003E27F3043E2160053E387
:105990000010A0E10A0000CA000053E30020A0E1CB
:1059A0000D0000BA44009FE55003A0E1000011E1A2
:1059B0000115A013511382100010C1110100A0E1C4
:1059C0001EFF2FE1800053E3FBFFFF1A10402DE97B
:1059D000A8FCFFFA1040BDE81EFF2FE1021100E213
:1059E000010073E3FE1581030100A0E11EFF2FE11A
:1059F000FFFF7F0004E02DE5B8209FE50231C0E302
:105A0000020053E10CD04DE2150000DAA8209FE51A
:105A1000020053E1040000DA0010A0E194FCFFFA58
:105A20000CD08DE204E09DE41EFF2FE10D10A0E1FB
:105A3000300A00EB030000E2010050E31400000A0A
:105A4000020050E30C00000A000050E31400000ABA
:105A500004109DE500009DE5800B00EB020180E253
:105A6000EEFFFFEA0020A0E30010A0E35B0E00EBD6
:105A70000CD08DE204E09DE41EFF2FE10120A0E3A5
:105A800004109DE500009DE5540E00EB020180E24C
:105A9000E2FFFFEA04109DE500009DE56F0B00EBBF
:105AA000DEFFFFEA0120A0E304109DE500009DE574
:105AB0004A0E00EBD9FFFFEAD80F493FFFFF7F7F77
:105AC00004E02DE570209FE50231C0E3020053E1C0
:105AD0000CD04DE2120000DA60209FE5020053E195
:105AE000040000DA0010A0E161FCFFFA0CD08DE2A6
:105AF00004E09DE41EFF2FE10D10A0E1FD0900EB85
:105B00008000A0E1022000E2012062E204109DE595
:105B100000009DE5830E00EB0CD08DE204E09DE4D7
:105B20001EFF2FE10120A0E30010A0E37D0E00EB9B
:105B30000CD08DE204E09DE41EFF2FE1DA0F493F17
:105B4000FFFF7F7FF0402DE92CD04DE20050A0E117
:105B50003D0300EB04719FE5D030D7E10060A0E188
:105B6000010073E30510A0E10500A0E10040A013CF
:105B70000140A0031B1100FA000050E30030A00117
:105B80000130A013033084E1FF4013E22500001A26
:105B90000500A0E130FFFFEBFE15A0E30C1100FAB9
:105BA000000050E31F00000A0120A0E3B0309FE591
:105BB0000500A0E10C008DE820408DE55CFAFFFABD
:105BC0000020A0E10130A0E198009FE510208DE5C4
:105BD00014308DE508208DE50C308DE52A0F00EBA3
:105BE000D030D7E1020053E318008DE51C108DE59D
:105BF0001000000A0D00A0E1210F00EB000050E3AF
:105C00000C00000A20309DE5000053E30F00001A4D
:105C100018108DE2030091E8EBFBFFFA2CD08DE227
:105C2000F040BDE81EFF2FE10600A0E12CD08DE280
:105C3000F040BDE81EFF2FE1471100EB2130A0E34B
:105C4000003080E520309DE5000053E3EFFFFF0AC0
:105C5000411100EB20309DE5003080E5EBFFFFEACD
:105C600000080020D8400D081C410D08F0402DE927
:105C70002CD04DE20050A0E1E60300EB04719FE55B
:105C8000D030D7E10060A0E1010073E30510A0E18E
:105C90000500A0E10040A0130140A003D11000FACC
:105CA000000050E30030A0010130A013033084E174
:105CB000FF4013E22500001A0500A0E1E6FEFFEB1D
:105CC000FE15A0E3C21000FA000050E31F00000A16
:105CD0000120A0E3B0309FE50500A0E10C008DE8B5
:105CE00020408DE512FAFFFA0020A0E10130A0E18A
:105CF00098009FE510208DE514308DE508208DE596
:105D00000C308DE5E00E00EBD030D7E1020053E31C
:105D100018008DE51C108DE51000000A0D00A0E1B3
:105D2000D70E00EB000050E30C00000A20309DE588
:105D3000000053E30F00001A18108DE2030091E8F1
:105D4000A1FBFFFA2CD08DE2F040BDE81EFF2FE151
:105D50000600A0E12CD08DE2F040BDE81EFF2FE14F
:105D6000FD1000EB2130A0E3003080E520309DE500
:105D7000000053E3EFFFFF0AF71000EB20309DE532
:105D8000003080E5EBFFFFEA00080020E0400D084E
:105D90001C410D0810402DE97C0400EB1040BDE8CB
:105DA0001EFF2FE1F0402DE92CD04DE20050A0E184
:105DB000E30400EB4C619FE5D030D6E1010073E3D2
:105DC0000040A0E12E00000A0500A0E1170F00EB43
:105DD000000050E32A00000A2C119FE50500A0E115
:105DE0007B1000FA007050E22900001A1C119FE598
:105DF0000500A0E1671000FA000050E32000000A4F
:105E00000420A0E308319FE50500A0E10C008DE827
:105E100020708DE5C6F9FFFA0020A0E30030A0E372
:105E2000D0C0D6E102005CE310008DE514108DE5D2
:105E300008008DE50C108DE518208DE51C308DE5F2
:105E40002C00000A0D00A0E18D0E00EB000050E3D5
:105E50002800000A20309DE5000053E30200000AFC
:105E6000BD1000EB20309DE5003080E518108DE27C
:105E7000030091E854FBFFFA2CD08DE2F040BDE81E
:105E80001EFF2FE10400A0E12CD08DE2F040BDE820
:105E90001EFF2FE10310A0E30020A0E370309FE578
:105EA0000500A0E104308DE500108DE520208DE592
:105EB0009FF9FFFAD030D6E1000053E310008DE5E2
:105EC00014108DE508008DE50C108DE50E22A00361
:105ED00040309F0518208D051C308D05D8FFFF0A26
:105EE0000000A0E330109FE5020053E318008DE5A9
:105EF0001C108DE5D2FFFF1A971000EB2230A0E3B3
:105F0000003080E5D2FFFFEA000800208071B14236
:105F1000B5F1CFC2E8400D08FFFFEF470000F07F6A
:105F2000F0432DE92CD04DE20070A0E10150A0E13A
:105F30002E0500EB40319FE5D080D3E1010078E3EE
:105F40000060A0E13D00000A0510A0E10500A0E10D
:105F5000241000FA000050E30190A0E30710A0E134
:105F60000090A0010700A0E11E1000FA000050E31D
:105F70000140A0E30010A0E30040A0010500A0E163
:105F8000FF0F00FA000050E30130A0E30030A00151
:105F9000044089E1FF3003E2FF4004E2040053E1E2
:105FA0002600009A0020A0E30110A0E3CC309FE57A
:105FB0000700A0E120208DE504308DE500108DE57F
:105FC0005BF9FFFA0060A0E10170A0E10500A0E12B
:105FD00008608DE50C708DE555F9FFFA000058E377
:105FE00010008DE514108DE51800000A0020A0E3D4
:105FF0000030A0E30200A0E10310A0E10BFAFFFAD9
:10600000020058E318008DE51C108DE51100001A00
:10601000511000EB2130A0E3003080E520309DE5F9
:10602000000053E31000001A18108DE2030091E8FD
:10603000E5FAFFFA2CD08DE2F043BDE81EFF2FE118
:106040000600A0E12CD08DE2F043BDE81EFF2FE159
:1060500018608DE51C708DE50D00A0E1080E00EBC9
:10606000000050E3ECFFFF1AE8FFFFEA3A1000EBF4
:1060700020309DE5003080E5EAFFFFEA00080020BF
:10608000F0400D0870402DE928D04DE20040A0E11D
:106090003E0500EB84319FE50050A0E10410A0E133
:1060A0000400A0E1D060D3E1CE0F00FA010076E356
:1060B0000020A0130120A003000050E30030A00145
:1060C0000130A013033082E1FF0013E30400001A43
:1060D0000010A0E30400A0E1BD0F00FA003050E280
:1060E0000300000A0500A0E128D08DE27040BDE861
:1060F0001EFF2FE128219FE50400A0E120308DE55F
:1061000004208DE50AF9FFFA000056E310008DE542
:1061100014108DE508008DE50C108DE51700001AB0
:106120000E22A0E3FC309FE50400A0E10010A0E3F4
:1061300018208DE51C308DE5910F00FA000050E32A
:106140002F00000A0230A0E300308DE50D00A0E131
:10615000CB0D00EB000050E31500000A20309DE558
:10616000000053E31600001A18108DE2030091E8B6
:1061700095FAFFFA28D08DE27040BDE81EFF2FE1AE
:106180000020A0E3A0309FE50400A0E10010A0E300
:1061900018208DE51C308DE5790F00FA000050E3E2
:1061A0000B00000A0230A0E3030056E100308DE549
:1061B000E5FFFF1AE80F00EB2230A0E3003080E596
:1061C000E5FFFFEAE40F00EB20309DE5003080E5BD
:1061D000E4FFFFEA0130A0E3020056E300308DE562
:1061E0000900001ADC0F00EB2130A0E3003080E54D
:1061F00038009FE5A40D00EB18008DE51C108DE51F
:10620000D5FFFFEA0130A0E300308DE50D00A0E1ED
:106210009B0D00EB000050E3F4FFFF1AF0FFFFEAD4
:1062200000080020F8400D08FFFFEFC70000F0FF56
:106230001C410D08F0472DE928D04DE20150A0E1A6
:106240000060A0E1BA0500EB0510A0E10070A0E13C
:106250000500A0E1630F00FAA8949FE5D080D9E182
:10626000000050E30030A0010130A013010078E3EA
:106270000020A0130120A003033082E1FF4013E2BD
:106280002D00001A0610A0E10600A0E1550F00FA4B
:1062900000A050E20010A0E37C00001A0600A0E17C
:1062A000370F00FA000050E32700000A0010A0E3B7
:1062B0000500A0E1320F00FA004050E21500000A8C
:1062C0000120A0E340349FE50600A0E10C008DE82A
:1062D00020A08DE596F8FFFA08008DE50C108DE5FD
:1062E0000500A0E192F8FFFA0020A0E30030A0E34F
:1062F000000058E310008DE514108DE518208DE5A1
:106300001C308DE55100000AFE05A0E328D08DE287
:10631000F047BDE81EFF2FE10500A0E1C30D00EB33
:10632000000050E30400000A0010A0E30500A0E113
:10633000180F00FA000050E3A600001A0700A0E1C1
:1063400028D08DE2F047BDE81EFF2FE10700A0E155
:10635000B60D00EB004050E26300000A0010A0E31D
:106360000700A0E1060F00FA000050E3F2FFFF0A69
:106370000600A0E1AD0D00EB000050E3EEFFFF0AC8
:106380000500A0E1A90D00EB000050E3EAFFFF0AC1
:106390000020A0E30410A0E36C339FE50600A0E119
:1063A00020208DE504308DE500108DE560F8FFFAC2
:1063B00008008DE50C108DE50500A0E15CF8FFFA02
:1063C0000020A0E30030A0E3D0C0D9E102005CE3EC
:1063D00010008DE514108DE518208DE51C308DE53D
:1063E0000300000A0D00A0E1250D00EB000050E3C2
:1063F0008F00001A580F00EB2230A0E3003080E538
:106400008B0000EA0120A0E3FC329FE50600A0E13A
:106410000C008DE820408DE545F8FFFA08008DE579
:106420000C108DE50500A0E141F8FFFAD040D9E15C
:10643000000054E30020A0E30030A0E310008DE54D
:1064400014108DE57E00001A18208DE51C308DE5B6
:106450000D00A0E10A0D00EB000050E37F00000AF0
:1064600020309DE5000053E30200000A3A0F00EBE4
:1064700020309DE5003080E518108DE2030091E8A2
:10648000D1F9FFFA28D08DE2F047BDE81EFF2FE1D9
:106490000500A0E1BA0E00FA000050E3A6FFFF0AD3
