:020000040800F2
:1000000000040020E1010008350E0008350E00084C
:10001000350E0008350E0008350E0008350E0008B4
:10002000350E0008350E0008350E000801300008B6
:10003000350E0008350E0008350E0008350E000894
:10004000350E0008350E0008350E0008350E000884
:10005000350E0008350E0008350E0008350E000874
:10006000350E0008350E0008350E0008350E000864
:10007000350E0008350E0008350E0008350E000854
:10008000350E0008350E0008350E0008350E000844
:10009000350E0008350E0008350E0008350E000834
:1000A000350E0008350E0008350E0008350E000824
:1000B000350E0008350E0008350E0008350E000814
:1000C000350E0008350E0008350E0008350E000804
:1000D000350E0008350E00081528000829280008EC
:1000E000350E0008350E0008350E0008350E0008E4
:1000F000350E0008350E0008350E0008350E0008D4
:10010000350E0008350E00086D260008350E000873
:100110003D280008350E0008350E0008350E000891
:10012000350E0008350E0008350E0008350E0008A3
:10013000350E0008350E0008350E0008350E000893
:10014000350E0008350E0008350E00080D24000895
:10015000350E0008350E0008350E0008350E000873
:10016000350E0008350E0008350E0008350E000863
:10017000350E0008350E0008350E0008350E000853
:10018000350E0008350E0008350E0008350E000843
:10019000350E0008350E0008350E0008350E000833
:1001A000350E0008350E0008350E0008350E000823
:1001B000350E0008350E0008350E0008350E000813
:1001C000350E0008350E0008350E0008350E000803
:1001D000350E0008350E0008350E0008350E0008F3
:1001E00072B6374880F3098836484EF60851CEF289
:1001F0000001086040F20000CCF200004EF63471BD
:10020000CEF200010860BFF34F8FBFF36F8F40F253
:100210000000C0F2F0004EF68851CEF200010860F6
:10022000BFF34F8FBFF36F8F4FF00000E1EE100A66
:100230004EF63C71CEF200010860062080F314886F
:10024000BFF36F8F00F0D8FD02F0AAFB4FF05530DE
:100250001D491E4A91423CBF41F8040BFAE71C4974
:10026000174A91423CBF41F8040BFAE719491A4A70
:100270001A4B9A423EBF51F8040B42F8040BF8E7C0
:1002800000201749174A91423CBF41F8040BFAE796
:1002900000F0B6FD02F086FB134C144DAC4203DABD
:1002A00054F8041B8847F9E700F0B6F8104C114DDC
:1002B000AC4203DA54F8041B8847F9E700F09EBD0E
:1002C00000080020000000080000002000040020BA
:1002D00000040020C03C000800080020280800207E
:1002E0002808002060270020E0010008E001000845
:1002F000E0010008E00100082DE9F04F2DED108A23
:10030000C1F80CD0C3689D46BDEC108ABDE8F08FE3
:10031000002383F311882846A047002000F08EFFB9
:1003200000F028FF00DFFEE7012020E000C0A0E190
:10033000030012E33200001A030011E32100001A47
:1003400004502DE50150A0E3055485E1055885E1F1
:1003500004402DE5040011E3043091E40500000A97
:10036000052043E00320D2E1850312E104308C0430
:10037000043091040C00001A044091E4052043E08D
:100380000320D2E1850312E1052044E00600001AB3
:1003900004308CE40420D2E1850312E1043091049E
:1003A00004408C04F3FFFF0A0430A0E10130CCE4E8
:1003B000FF0013E36334A0E1FBFFFF1A04409DE458
:1003C00004509DE41EFF2FE1010011E30300000A29
:1003D0000120D1E40120CCE4000052E31EFF2F01F4
:1003E000020011E3D5FFFF0AB220D1E0FF0012E3C3
:1003F000B220CC100020CC05FF0C1213CFFFFF1A47
:100400001EFF2FE10120D1E40120CCE4000052E3E3
:10041000FBFFFF1A1EFF2FE138B5184B03221A709D
:100420006FF03F0200245A720F225C709C70DC70E7
:100430001C715C719C71DC711C729A72DC7202F02E
:1004400001FD0F4B984217D00133984241F2883496
:1004500012BF002500240125002002F0F9FC0DB197
:1004600000F052F800F06AFC00F046FB204600F075
:1004700091F800F049F8F9E72546EDE72808002053
:10048000010007B008B500F0B5FAA0F1200358420A
:10049000584108BD07B5054B02211B88ADF8043053
:1004A00001A800F013FB03B05DF804FB4C39000811
:1004B00010B51148C3680BB100F088FD0F4C104A0D
:1004C0000D4800234FF47A7100F044FD236813B106
:1004D0002368013B2360636813B16368013B636079
:1004E000084B1B7833B9636823B9022000F0E0FBA6
:1004F0003223636010BD00BF340800204C0D002083
:10050000B10400084808002038B51B4C23680133AB
:1005100030D01A4D1A4B2A689A422BD9194B9B6836
:1005200003F1006303F580439A4223D2002000F0D8
:10053000FDFA154B0220187000F0B0FB134B1A6C3B
:1005400000221A64596C5A64596941F0800159615A
:100550005A61196941F0005119611A6172B60C4B68
:100560001C6023682A68202181F311889D4683F34B
:100570000888104738BD00BF00400008044000084C
:10058000FF3F0008280800204808002000380240EB
:1005900008ED00E02DE9F04FB34B8246B3489C686C
:1005A0000022C2608FB0202282F31188C2680093BB
:1005B0000AB100F00BFD0023AD4AAC484FF47A714C
:1005C00000F0C8FC002383F31188DFF8C0B2BAF151
:1005D000000F01D0CBF800A0A64FCBF804300025C7
:1005E0003B702E464FF0FF38012000F057FBBAF168
:1005F000000F00F0C181DBF80030002B40F0BC811F
:100600000FB0BDE8F08F0220FFF73CFF002840F05C
:10061000AF81994B1B88ADF82430022109A800F066
:1006200055FAE1E74FF47A7000F0E4F9031E019304
:10063000EFDB0220FFF726FF81460028E9D0019B6F
:10064000581E0428E5D8DFE800F00310131619003F
:100650000EA8052340F8143D042100F037FA4D465A
:1006600000F062FBFFF716FF7FE104217E48F4E70C
:1006700004218248F1E704218148EEE71C25284641
:1006800000F056FA04350990042109A800F01EFA7A
:100690002C2DF4D1E3E7002EBBD0002DB9D00220E1
:1006A000FFF7F0FE064610B901252E46B1E70120FE
:1006B00000F03CFA0220387000F0F0FA00255FFAF2
:1006C00085F9484600F04AFA0135044618B1484613
:1006D00000F054FAF3E7012302203B7000F0D6FA51
:1006E000009B9B689C4207D2204600F021FA013013
:1006F00040F040810434F3E700243C70CBF8044020
:100700003546ADE7002E84D0002D82D0022038700F
:1007100000F0C4FA322000F06DF9051EC4DB15F0BC
:100720000306C1D1009A926863199342BCD8B5F50B
:10073000807FB9D8DFF84C91AE420CDA4FF47A7072
:1007400000F058F90390039B002BADDB039B06F8E8
:1007500009300136F0E7C820FFF794FE064600286E
:10076000A2D02CB9474B4FF0FF32D3F800801A606B
:10077000444B25F003052544A3EB0409AC42BFD04C
:1007800059F80410204600F0D9F9204600F0D0F9BD
:1007900059F80430984240F0ED800434EEE702202E
:1007A000FFF770FE00283FF434AF4FF0000AD14647
:1007B000009B9B689A4537D2BAF1000F17D1B8F168
:1007C000FF3F14D0CDF824802F494B68A3B10022FD
:1007D00009A8135C83EA0903DBB2013251F8233024
:1007E000042A83EA1929F4D10AF1040AE0E7504601
:1007F00000F09EF90990E7E71A46082012F0010F71
:100800004FEA52021FBF82F06D4282F4380282F436
:10081000034282F020020138F0D141F82320013355
:10082000B3F5807FE8D1D2E70EA8042140F8289DD7
:1008300000F04CF914E70EA8002340F8143D6421A1
:1008400000F010F900287FF4E4AE0220FFF71AFE52
:1008500000283FF4DEAE099800F0A2F90EAB43F891
:10086000240D04211846E3E728080020340800205E
:10087000B1040008480800204E3900082C08002068
:10088000300800204C0800204C0900204C0D0020AE
:100890000EA8002340F8143D642100F0E3F800287E
:1008A0007FF4B7AE0220FFF7EDFD00283FF4B1AEB4
:1008B000099800F083F90EAB43F8200DD1E7022030
:1008C000FFF7E0FD00283FF4A4AE00F07DF90EAB89
:1008D00043F81C0DC5E70220FFF7D4FD00283FF4C4
:1008E00098AE09A9142000F075F981460EA80421DC
:1008F00040F8189D00F0EAF8494609A898E74FF437
:100900007A70FFF7BFFD00283FF483AEB8F1FF3FD8
:1009100005D1FFF7BFFD354800F096FC70E6414673
:10092000002000F00BF9002000F002F98045F0D023
:100930002F4B6FE60EA8002340F8143D642100F011
:1009400091F800287FF465AE0220FFF79BFD002898
:100950003FF45FAEFFF79EFD41F2883000F074FC7B
:10096000099800F029FA00F0DFF94FF0000A3BE6A1
:10097000064675E63546DBE7002000F03BF80390BD
:10098000039B002BFFF633AE012000F07FF9039BA1
:10099000213B122B3FF628AE01A252F823F000BFF4
:1009A000070600082506000897060008E905000864
:1009B000E9050008E905000805070008E905000841
:1009C0009F0700083708000891080008BF080008C2
:1009D000E9050008D7080008E9050008FF08000835
:1009E00061060008E905000835090008A086010035
:1009F000503900082DE9F34702AE00244FF47A7510
:100A000006F8014D144FDFF85880454397F9003040
:100A10005A1C5FFA84F901D0A34212D158F824007D
:100A200003680122D3F81CA031462B46D047012889
:100A300007D10A4B9DF8070083F8009002B0BDE88B
:100A4000F0870134042CE1D14FF4FA7000F0FCFB84
:100A50004FF0FF30F2E700BF000800206C0D0020CF
:100A6000903900082DE9F0474FF47A75144FDFF8FC
:100A7000588006464D43002497F900305A1C5FFA0F
:100A800084F901D0A34210D158F82400036804224D
:100A9000D3F81CA031462B46D047042805D1094B7A
:100AA00083F800900020BDE8F0870134042CE3D1E6
:100AB0004FF4FA7000F0C8FB4FF0FF30BDE8F0874C
:100AC000000800206C0D00209039000830B4074B5E
:100AD0001A78074B53F8224023689D69054B0A4654
:100AE000AC460146204630BC604700BF6C0D00207C
:100AF00090390008A086010070B502F0DFF8094CBB
:100B0000094E2070002530682378834208D902F00E
:100B1000CFF8336805440133B5F5804F3360F2D325
:100B200070BD00BF6D0D0020540D002002F076B99D
:100B300000F1006000F580400068704707B502AB27
:100B400000F1006043F8041D0422194600F58040BE
:100B500002F0F2F803B05DF804FB0000054B1A68E0
:100B6000054B1B781344834202D9104402F0A0B80D
:100B700000207047540D00206D0D002038B5074D42
:100B800004462868204402F09BF828B928682044CD
:100B9000BDE8384002F0ACB838BD00BF540D0020AD
:100BA00010F0030308D1B0F5007F05D800F1005024
:100BB000A0F508400068704700207047014BC058FE
:100BC000704700BF107AFF1F014B1868704700BFC5
:100BD000002004E070B52A4B1C68C4F30B03240CFE
:100BE00063B140F21342934231D040F21942934232
:100BF0002FD040F2214293422DD10323214A0C25CC
:100C000005FB03235D6893F9082042F201039C422F
:100C100024D0B4F5805F23D041F201039C4221D05F
:100C200041F203039C421FD041F207039C4208BFDC
:100C30003122441E0C44013D0B46A3421ED215F93D
:100C4000016F581C96B1034600F8016CF5E70123CB
:100C5000D4E70223D2E73F220B4DD6E73322E3E766
:100C60004122E1E75A22E4E75922E2E72C258442B7
:100C70001D7001D9981C5A70401A70BD1846FBE7C8
:100C8000002004E06039000854390008022802BF3F
:100C9000014B08229A61704700080240022802BFF7
:100CA000024B4FF400229A61704700BF00080240D7
:100CB000022801BF024A536983F008035361704759
:100CC0000008024010B50023934203D0CC5CC4540A
:100CD0000133F9E710BD000030B5441E14F9010FCF
:100CE0000B4660B193F90050854201F1010106D134
:100CF0001AB993F90020801A30BD013AEEE7002AB4
:100D0000F7D1104630BD000002460346981A13F989
:100D1000011B0029FAD1704702440346934202D0D6
:100D200003F8011BFAE77047024B1A78024B1A705E
:100D3000704700BF6C0D002000080020F8B5184C6B
:100D40001848194D194E174F00F0B2FB21461548AF
:100D500000F0DAFB236816485A6DD2F8043843F0E5
:100D60000203C2F8043800F06FFA2068114900F05D
:100D7000E7FC23685A6DD2F8043823F00203C2F866
:100D800004384FF4E1332B60002456F82400B842B5
:100D900002D0294600F0F2FA0134042CF5D1F8BD56
:100DA000A03B0008081E0020580D002090390008C4
:100DB00040420F00EC3B000838B50B4B1A780B4B48
:100DC00053F822400A4B9C4205460CD0094B0021A7
:100DD00018461422FFF7A0FF056001462046BDE833
:100DE000384000F0CBBA38BD6C0D002090390008B7
:100DF000081E0020580D002070470000FEE700008C
:100E0000084A094B09498B4204D3094A00219342FD
:100E100005D3704752F8040F43F8040BF3E743F887
:100E2000041BF4E7E43C0008602700206027002052
:100E3000602700201EF0040F0CBFEFF30880EFF3D3
:100E400009808169004A1047510E00087047000070
:100E5000204B02681A60204B42681A601F4B826860
:100E60001A601F4BC2681A601E4B02691A601E4B43
:100E700042691A601D4B82691A601D4BC2691A6073
:100E80001C4B1D491A681D4B1A601A68120A0A7019
:100E90001A681B4B1A701B4B1A681B4B1A601B4BB2
:100EA0001A681B4B1A601B4B1A681B4B1A601B4BB2
:100EB0001A681B4B1A601B4B1A681B4B1A601B4BA2
:100EC0005A6A1B4B1A601B4B1B68DB0701D500BE1F
:100ED000FEE7FEE7A00D0020A40D0020AC0D0020D1
:100EE000B00D0020A80D0020940D0020980D0020CA
:100EF0009C0D002028ED00E0780D00207C0D0020E6
:100F00008C0D00202CED00E0840D002030ED00E081
:100F1000800D00203CED00E0700D002034ED00E07D
:100F2000880D002038ED00E0740D002000ED00E099
:100F3000900D0020F0ED00E0054B03F114025A6122
:100F40009A614FF0FF32DA6100221A62704700BFE7
:100F5000B40D0020F8B503611A4BC2605C6A1A4BED
:100F60001A46022952F8145F38BF022195420646FC
:100F70001F460AD1586198611C6205604560816016
:100F80000819BDE8F84000F0B5BB186AAB68241A30
:100F90000C1902D3E41A2D6804E09C4202D22044CA
:100FA00000F0B8FBAB689C42F4D86B6873603560A6
:100FB0001E606E60B460A9684FF0FF33091BA96022
:100FC000FB61F8BD000C0040B40D002010B41A4CB9
:100FD000234653F8141F814210D0416802680A600A
:100FE000026851609A424FF00001C16003D09368DB
:100FF00081680B4493605DF8044B70470A68626136
:1010000000209A425360C86003D15DF8044B00F0A1
:101010007BBB9368886803449360084A506A226ADD
:10102000821A9342E7D99B1A022B2CBFC0180230B8
:101030005DF8044B00F06EBBB40D0020000C0040C6
:10104000024B00221B605B609A607047B40D002069
:10105000002303748268054B1B6899689142FBD298
:101060005A6803604260106058607047B40D0020F9
:1010700008B5202383F31188037C032B05D0042BB0
:101080000DD02BB983F3118808BD436900221A6083
:101090004FF0FF334361FFF7DBFF0023F2E790E8F7
:1010A0000C001A6002685360F2E70000002303742A
:1010B0008268054B1B6899689142FBD85A680360A7
:1010C0004260106058607047B40D0020054B1969EC
:1010D0000874186802681A60536018610123037469
:1010E000FFF70AB9B40D002030B54B1C87B0054698
:1010F0000A4C10D023690A4A01A8FFF72BFF2846A3
:10110000FFF7E4FF049B13B101A8FFF75FFF23691A
:10111000586907B030BDFFF7D9FFF8E7B40D0020DC
:101120007110000838B50C4D41612B6981689A68CF
:101130009142044603D8BDE83840FFF789BF1846FE
:10114000FFF786FF01232C61014623742046BDE88A
:101150003840FFF7D1B800BFB40D0020044B1A6827
:101160001B6990689B68984294BF002001207047DB
:10117000B40D002010B5084C236820691A6822605D
:101180005460012223611A74FFF790FF0146206921
:10119000BDE81040FFF7B0B8B40D002008B5FFF768
:1011A000DDFF18B1BDE80840FFF7E4BF08BD00004F
:1011B0008260022202740022427482617047000041
:1011C0008368A3F1840243F8142C026943F8442C89
:1011D000426943F8402C084A43F8242CC26843F87B
:1011E000182C022203F8102C002203F80F2C43F8CD
:1011F000082CA3F1200070471103000808B5FFF781
:10120000DFFFBDE80840FFF723BF000010B5202333
:1012100083F31188FFF7D4FF00210446FFF782FF14
:10122000002383F31188204610BD0000024B1B6988
:1012300058610F20FFF74ABFB40D0020202383F32D
:101240001188FFF7F3BF000008B50146202383F3A0
:1012500011880820FFF748FF002383F3118808BD99
:1012600010B5054C2369036058610320FFF72EFF7A
:101270002369586910BD00BFB40D002003682BB16D
:101280000022026059611846FFF7E2BE7047000075
:1012900049B1064B42681B6918605A60136043608D
:1012A0000420FFF721BF4FF0FF307047B40D00203E
:1012B0000368984206D01A68026050605961184667
:1012C000FFF7C6BE7047000038B504460D462068DB
:1012D000844200D138BD036823605C604561FFF73C
:1012E000B7FEF4E70C3002F027B900004FF0FF33EF
:1012F0000C3002F021B90000303002F0BDB900001E
:101300004FF0FF33303002F0B7B900000C3002F07C
:10131000EDB800004FF0FF310C3002F0E7B80000EC
:10132000303002F067B900004FF0FF32303002F089
:1013300061B9000001F08CBA37B5034615460E4A74
:1013400043F8042B43600123044603724FF40072F8
:1013500000900B4600F154010C3002F09DF800940F
:101360002B464FF4007204F5157104F1300002F0C1
:1013700035F903B030BD00BFC039000810B52023D7
:10138000044683F3118801F093FA022323720023A9
:1013900083F3118810BD000038B5436904460D463B
:1013A0001BB90421084401F007FE294604F10C0092
:1013B00002F080F8002806DA201D4FF48061BDE8B5
:1013C000384001F0F9BD38BD13B5446BD4F88C3406
:1013D0001A681178042916D1217A022913D11979B2
:1013E000128901238B4013420DD101A904F144005D
:1013F00001F066FF024630B1D4F88C44019B21799C
:10140000206800F0E9F902B010BD00000C3001F0D6
:10141000D3BE00004FF0FF330C3001F0CDBE000012
:10142000443001F0B9BF00004FF0FF33443001F009
:10143000B3BF00000C3001F0A1BE00004FF0FF313F
:101440000C3001F09BBE0000443001F085BF00006D
:101450004FF0FF32443001F07FBF0000D0F88C2401
:1014600038B5136819780429054601D0012038BD24
:10147000017A0229FAD112795C8901209040044056
:10148000F4D105F10C0001F033FE02460028EDD046
:10149000D5F88C544FF480732868697900F08AF984
:1014A000204638BD406BFFF7D9BF000070470000F1
:1014B0007FB50346114A43F8042B012543600226F9
:1014C0000F4B057204460290019300F17C022946FD
:1014D00000964FF480730C3001F0E6FD094B019348
:1014E000029400964FF4807304F52172294604F1AA
:1014F000440001F0C1FE04B070BD00BFE039000837
:10150000A5140008C91300080B68202282F3118873
:101510000A7903EB820290614A79093243F822008A
:101520008A7912B103EB8203986102230372C0F837
:101530008C14002383F311887047000038B50446EB
:1015400001250221043001F037FD04F10C0025755E
:101550006FF00101FFF7B8FE84F84C5004F144002D
:101560006FF00101BDE83840FFF7AEBE10B50121B4
:101570000446043001F020FD0023237584F84C302C
:1015800010BD000038B5044600250C3001F0A4FD64
:1015900004F14400257501F087FE201D84F84C50AD
:1015A000012101F009FD2046BDE83840FFF756BF94
:1015B00090F8443003F06003202B19D190F84520B7
:1015C000212A0AD0222A4FF000030ED0202A0FD160
:1015D000084A82630722C26304E0064B8363072341
:1015E000C36300230364012070478363C363F9E787
:1015F0000020704701080020D0F88C3437B51A68F5
:101600001178042904461AD1017A022917D11979CF
:10161000128901238B40134211D100F14405284661
:1016200001F01AFF58B101A9284601F049FED4F88B
:101630008C44019B21790246206800F0CDF803B06C
:1016400030BD000000EB8103F7B59C6905460E46EE
:10165000F4B1202383F3118805EB8607201D0821B0
:1016600001F0AAFCFB685B691B68443413B1204697
:1016700001F034FE01A9204601F022FE024648B1E5
:10168000019B3146284600F0A7F8002383F3118818
:1016900003B0F0BDFB685A691268002AF5D01B8AB6
:1016A000013B1340F1D105F14402EAE7093110B5DD
:1016B00050F82140CCB1202383F311880421601815
:1016C00001F07AFCD4F88C241368527903EB82037E
:1016D00004F10C00DB689B69596801F013FD20469A
:1016E000FFF7BCFE002383F3118810BD7047000094
:1016F00000F0D0BF034B002258631A610222DA6067
:10170000704700BF000C0040014B0022DA607047B8
:10171000000C0040014B5863704700BF000C0040B4
:1017200000F09CBB0123037000234360C36183620C
:101730000362C36243620363038143817047000015
:1017400038B50446202383F3118800254160C56025
:1017500005614561856100F093FB0223237085F3E9
:10176000118838BD70B500EB810305465069DA6019
:101770000E46144618B110220021FFF7CDFAA069D9
:1017800018B110220021FFF7C7FA31462846BDE8FC
:10179000704000F04DBC0000028902F0010202819D
:1017A000428902F0010242810022026142618261AB
:1017B00000F0D2BCF0B400EB81044789E468012555
:1017C000A4698D403D43458123600023A26063608E
:1017D000F0BC00F0EDBC0000F0B400EB8104078920
:1017E000E468012564698D403D4305812360002341
:1017F000A2606360F0BC00F06BBD000070B5022316
:10180000002504460370A0F84C5080F84E5080F834
:101810004F5005814581C56005614561856180F84E
:10182000345000F0A3FB63681B6823B129462046AF
:10183000BDE87040184770BD436802781B6880F8A7
:101840005020052202700BB1042118477047000098
:10185000436890F850201B6802700BB105211847AF
:101860007047000070B50023044680F8343000F162
:10187000440200F093FC63689B685BBB94F844509F
:1018800015F0600614D194F8453005F07F0545EA5F
:101890000325B5F5407F00F0A58059D8022D00F052
:1018A000F1803FD8002D00F08780012D00F0E4800A
:1018B0000021204600F0BCFE0021204600F0AEFED4
:1018C00063681B6813B1062120469847062384F8F5
:1018D000343070BD204698470028CFD094F84B2074
:1018E00094F84A3043EA0223E26B934238BFE36341
:1018F00094F94430E56B002B4FF0200380F2018116
:10190000002D00F0F080012284F8342083F3118848
:101910000021E36BA26B2046FFF75EFF002383F3F9
:10192000118870BDB5F5807F4DD0B5F5817FBFD1F1
:1019300094F84630002BBBD194F8483013F00F01D7
:1019400026D01A06204640F1B78000F085FE1FE041
:10195000B5F5C06F50D020D840F202339D4200F060
:10196000AE80B5F5A06FA3D1B4F84430B3F5A06F45
:101970000ED194F8463084F84E30204600F04CFBEF
:1019800063681B6813B10121204698470323237025
:101990000023A363E3632364A0E7B5F5106F41D090
:1019A00040F602439D4267D0B5F5006F80D104F147
:1019B0004F03A363012333E004F14C03A363022329
:1019C000E36325648AE794F84630012B7FF470AF17
:1019D000B4F84C3023F00203A4F84C30A663E6635D
:1019E00026647BE794F84630012B7FF461AFB4F8AE
:1019F0004C3043F00203EFE794F84920616894F813
:101A000048304D6894F8471043EA0223204694F882
:101A10004620A84700283FF44BAF4368A363036800
:101A2000E363DDE794F84F2094F846309A42AFD054
:101A30002378042B10D1202383F311882046FFF74D
:101A4000ABFE86F31188636884F84F601B6803213E
:101A500021700BB12046984794F84630002B97D060
:101A600084F84F300423237063681B68002B8FD0E9
:101A70000221204698478BE72E4BA3630223E363A2
:101A8000002388E794F8481011F0800F204601F0F9
:101A90000F010ED000F074FB012806D002287FF45D
:101AA00007AF254BA363E0639AE7244BA363E56389
:101AB00096E700F057FBEFE700F0C4FD68E794F805
:101AC0004630002B7FF4F4AE94F8483013F00F0149
:101AD0003FF45EAF1B06204602D500F0A9FD57E794
:101AE00000F09CFD54E7032284F8342083F311882E
:101AF0002B462A4629462046FFF75CFE85F31188CF
:101B000070BD5DB1042284F8342083F31188002174
:101B1000E36BA26B2046FFF74DFEFFE6052284F83B
:101B2000342083F311882B462A4629462046FFF7A6
:101B300053FEE3E7083A0008003A0008043A0008B8
:101B400038B590F834300446062B22D8DFE803F08D
:101B5000370422373732370090F84B1090F84A207C
:101B6000C36B42EA01229A4214D9C268128AB3FBBB
:101B7000F2F502FB15356DB9202383F311882B464E
:101B80002A462946FFF728FE85F31188022384F8A8
:101B9000343038BD032384F83430202383F3118894
:101BA00000231A4619462046FFF704FE002383F35C
:101BB000118838BD036C03B198470023E7E7002183
:101BC00000F036FD0021204600F028FD63681B6808
:101BD00013B10621204698470623D8E790F8342011
:101BE000062A38B5044621D80123934013F0670F25
:101BF0001DD113F008050FD1DB0617D5052380F89A
:101C00003430202383F311882B462A462946FFF7D8
:101C1000E3FD85F3118838BDC3689B695B682BB908
:101C2000036C03B19847002384F8343038BD002199
:101C300000F0FEFC0021204600F0F0FC63681B6809
:101C400013B10621204698470623EDE7836D30B592
:101C500000229D68446D11464FF0FF3004EB4213A3
:101C600001329542C3F80019C3F81019C3F80809E6
:101C7000C3F8001BC3F8101BC3F8080BEED24FF0DB
:101C80000113C4F81C3830BD890141F02001016105
:101C900003699B06FCD4122001F070B92DE9F04FC6
:101CA000202387B00446456D83F3118800F1640357
:101CB00005934FF0000B2378012B04D0236E4BB912
:101CC0006B69DB0606D4AB69059843F01003AB6182
:101CD000FFF7C6FA8BF311884FF0000E4FF0200982
:101CE000A36D9B685FFA8EF083421BD2202383F39F
:101CF0001188E0E7616D0A6A02F4F013B3F5802FF2
:101D000066D0B3F5402F0DD1C2F30A1602F00F02D0
:101D100004EB820201F58051D3681F6A00231A4642
:101D20009E4248D1696911F01001E3D1012303FA01
:101D300000F2236E1A4200F08C8089F31188AB68A0
:101D400023F00103AB60236E23EA0203236681F3D1
:101D5000118804EB8003D3F80C80D8F814100B68BA
:101D60000093431C1B030293430104934868009BA8
:101D700098425FD2B8F81060676D1B1AB34228BF53
:101D80003346049EBE19D6F81869B6B2B3EB860F77
:101D900062D8029EBE1903968E680196A6F1040AC7
:101DA0009C46039E5AF8047F3760BCF1040F3BD970
:101DB000ACF1040CF5E713F0030F08BF0A68072B1A
:101DC00098BF3A7003F101039CBF120A0137A7E7DD
:101DD000C2F30A1602F00F0204EB820201F58051F1
:101DE000D3689B691F68D3F808805B68A7EB030C76
:101DF00000231F469E4208D1D36899698A684B68C0
:101E0000324433448A604B608CE713F0030F08BF01
:101E10000F689C4588BF88F8007003F1010384BFF8
:101E20003F0A08F10108E5E7019E1E4403448E6065
:101E30004B609BE7012189F31188AB6843F00103F4
:101E4000AB6021B9D5F834381A43C5F834288BF380
:101E500011880EF1010E43E70021ECE710B5064CA6
:101E60002046FFF75FFC4FF0A04200236265034A63
:101E70006366A265A36610BDF80D0020303A000825
:101E800070B50378012B86B005465BD12F4B446DAE
:101E9000984213D12E4B5A6B42F080025A635A6912
:101EA00042F080025A6100225A610E21432001F063
:101EB00035FC284BE360284BC4F8003800232B6620
:101EC000C4F8003EC02323604FF40413A3636E6D77
:101ED000202001F053F8012333613369DB07FCD480
:101EE000122001F04BF83369002BFCDA0026A660C3
:101EF0002846FFF7ABFE6B68C4F81068DB68C4F8CF
:101F00001468C4F81C68FBB9144BA3614FF0FF338D
:101F10006361AB6E93B9124B009305F170030193AB
:101F200005F5367302930223039368460D4B049321
:101F30000595FFF763F9A866FFF730F9A36843F04A
:101F40000103A36006B070BD074BDEE7F80D00206B
:101F5000003802404014004003002002003C30C022
:101F60003C3A00089D1C0008083C30C0F8B5446DA0
:101F7000054600212046FFF787FEA96D00234FF09C
:101F800001128F68C4F834384FF00066C4F81C287A
:101F90004FF0FF3004EB431201339F42C2F8006957
:101FA000C2F8006BC2F80809C2F8080BF2D20B683D
:101FB000EB6563626B6D10221A611E6916F01006E4
:101FC000FBD1122000F0DAFFD4F8003823F4FE63CE
:101FD000C4F80038A36943F4402343F01003A3611D
:101FE0000923C4F81038C4F81438094BEB60094BC6
:101FF000C4F8106BC4F8003BC4F81069C4F8003989
:10200000EB6D03F1100243F48013EA65A362F8BD9F
:102010000C3A000840800010426D90F84E10D2F843
:10202000003823F4FE6343EA0113C2F80038704716
:102030002DE9F0410EB200EB86080D46D8F80C10E1
:102040000F6807F00303022B50D0032B50D03D4AFA
:102050003D4F012B18BF1746446D4FEA451E04EB58
:102060000E030022C3F8102B8A6905F1100C002A18
:1020700040D04A8A05F158035B013A43E2500123FC
:10208000D4F81C2803FA0CF31343A6444A69C4F895
:102090001C380023CEF8103905F13F03002A39D04F
:1020A0000A8A898B9208012988BF4A43C16D04EBD3
:1020B0008303561841EA0242C66529465A60204603
:1020C000FFF7E2FDD8F80C301B8A43EA85531F4323
:1020D00005F148035B01E7500123D4F81C2803FAFB
:1020E00005F51543C4F81C58BDE8F081174FB3E758
:1020F000174FB1E704EB4613D3F8002B22F400424C
:10210000C3F8002BD4F81C28012303FA0CF322EAAD
:102110000303BAE704EB83030E4A5A6004EB461646
:1021200029462046FFF7B0FDD6F8003923F40043D6
:10213000C6F80039D4F81C38012202FA05F523EA62
:102140000505CFE700800010008004100080081013
:1021500000800C1000040002826D1268C265FFF757
:1021600075BD00005831436D49015B5813F40040C0
:1021700004D013F4001F14BF012002207047000098
:102180004831436D49015B5813F4004004D013F407
:10219000001F14BF012002207047000000EB8101E6
:1021A000CB68196A0B6813604B6853607047000076
:1021B00000EB810330B5DD68AA691368D36019B9F3
:1021C000402B84BF402313606B8A1468426D1C440B
:1021D000013CB4FBF3F46343033323F0030302EB4A
:1021E000411043EAC44343F0C043C0F8103B2B689E
:1021F00003F00303012B09B20ED1D2F8083802EB29
:10220000411013F4807FD0F8003B14BF43F080539B
:1022100043F00053C0F8003B02EB4112D2F8003B00
:1022200043F00443C2F8003B30BD00002DE9F0410B
:10223000264D6E6D06EB40130446D3F8087BC3F8B9
:10224000087B38070AD5D6F81438190706D505EBE8
:1022500084032146DB6828465B689847FA0733D534
:10226000D6F81438DB072FD514B995F834305BB3A2
:1022700005EB8403D968CCB98B69488A5E68B6FBE4
:10228000F0F200FB12628AB91868DA6890420DD247
:10229000121A83E81400202383F311880B48214687
:1022A000FFF786FF84F31188BDE8F081012303FA6C
:1022B00004F26B8923EA02036B81CB6823B12146C8
:1022C0000248BDE8F0411847BDE8F081F80D002054
:1022D00000EB810370B5DD68436D6C692668E660CC
:1022E0004A0156BB1A444FF40020C2F810092A686C
:1022F00002F00302012A0AB20ED1D3F8080803EB58
:10230000421410F4807FD4F8000914BF40F08050CC
:1023100040F00050C4F8000903EB4212D2F8000963
:1023200040F00440C2F80009D3F83408012202FA50
:1023300001F10143C3F8341870BD19B9402E84BFB0
:102340004020206020682E8A841940F00050013C13
:102350001A44B4FBF6F440EAC440C6E72DE9F04164
:10236000284C666D06EB40130546D3F80879C3F890
:102370000879F9071AD5D6F81038DA0716D504EB1C
:102380008003D9684B691868DA6890422CD2121A17
:102390004FF000081A60C3F80480202383F31188EB
:1023A00029462046FFF794FF88F311883B0619D58C
:1023B000D6F83428012303FA05F5154212D020235C
:1023C00083F31188236E10482B432366D6F83438E4
:1023D00023EA0505C6F834580021FEF74FFF002315
:1023E00083F31188BDE8F081012303FA05F2238904
:1023F00023EA020323818B68002BD7D0294620468D
:102400009847D3E7F80D00205C0E00202DE9F74F28
:102410008048446D6669A3691E4016F4805F66615A
:10242000054608D000230366FFF7E8F903B0BDE8CE
:10243000F04F00F0F7BD002E12DAD4F8003E7548D8
:102440009F071EBFD4F8003E23F00303C4F8003EEC
:10245000D4F8043843F00103C4F80438FFF7F8F95E
:10246000300504D500236B482B66FFF7E5F9B1046E
:102470000CD5D4F8083813F0060FE36823F4705332
:102480000CBF43F4105343F4A053E360320704D568
:102490006B68DB680BB15F489847F3024ED4B70214
:1024A0000CD5D5F85480DFF86CA100274FF0010956
:1024B000AB6D9B68F9B28B4280F08F80F5060DD52D
:1024C000202383F31188A369534823F01003A361E9
:1024D0000021FEF7D3FE002383F311883003D4F8E4
:1024E000184813D5E10302D50020FFF79FFEA20391
:1024F00002D50120FFF79AFE630302D50220FFF701
:1025000095FE270302D50320FFF790FE75038DD5B6
:10251000E00702D50020FFF721FFA10702D5012027
:10252000FFF71CFF620702D50220FFF717FF230702
:102530007FF57CAF0320FFF711FF77E7D5F854A0B4
:10254000DFF8D4B04FF00009AB6D9B685FFA89F7F4
:10255000BB42A4D30AEB4713D3F8002902F440226C
:10256000B2F5802F36D1D3F80029002A32DAD3F819
:10257000002942F09042C3F80029D3F80029002A2C
:10258000FBDB3946686DFFF77FFB01232A89BB40DF
:102590006FEA030808EA02022A8105EB8702D26883
:1025A000926822B139461B4801939047019B202233
:1025B00082F31188DAF8342808EA0202CAF83428CB
:1025C0002A6E0021134358462B66FEF757FE002360
:1025D00083F3118809F10109B6E708EB4112D2F83B
:1025E000003B03F44023B3F5802F10D1D2F8003B19
:1025F000002B0CDA6A8909FA01F322EA03036B81E2
:1026000005EB8103DB68DB680BB150469847013767
:102610004EE700BFF80D00205C0E0020436D03EB79
:102620004111D1F8003B43F40013C1F8003B70475F
:10263000436D03EB4111D1F8003943F40013C1F8A5
:1026400000397047436D03EB4111D1F8003B23F48F
:102650000013C1F8003B7047436D03EB4111D1F803
:10266000003923F40013C1F800397047084B1A6988
:10267000920710B508D500241C61202383F311882C
:1026800000F042FC84F31188BDE8104000F0CABCA1
:10269000000C00400D4A136C43F0080313640C4A0D
:1026A000936843F0080393600A4B53229A624FF0F9
:1026B000FF32DA6200229A615A63DA605A600122BC
:1026C0005A6108211A60322001F028B8003802400F
:1026D000002004E0000C0040024AD36843F080036D
:1026E000D360704700440040024AD36843F080033F
:1026F000D360704700480040024AD36843F080032B
:10270000D3607047004C00402DE9F041D0F854648C
:10271000F7683368DA0505469CB20DD5202383F3AC
:1027200011884FF40071043000F046FC6FF48073A0
:102730003360002383F31188202383F3118805F18C
:10274000040814F02F033AD183F31188390617D502
:10275000220615D5202383F3118805F1300000F0FF
:1027600071FF00284DDA0821281D00F025FC4FF6E6
:102770003F733B4043F04003F360002383F3118831
:10278000630614D5202383F311886A6CAB6C9A42DC
:1027900002D1AB6B002B36D127F040073F043F0C32
:1027A0006FF04003F7603360002383F31188D5F89E
:1027B0005C24D36863B31069BDE8F0411847230770
:1027C00013D014F0080F0CBF00218021E00748BF90
:1027D00041F02001A20748BF41F04001630748BF14
:1027E00041F48071404600F0E7FBA006736805D510
:1027F00095F8581428461940FEF7CEFD3468A4B267
:102800009FE77060B9E71021281D00F0D5FBC3E7F2
:10281000BDE8F08108B50348FFF776FFBDE8084042
:1028200000F000BCE810002008B50348FFF76CFF7B
:10283000BDE8084000F0F6BB4815002008B5034885
:10284000FFF762FFBDE8084000F0ECBBA8190020CC
:1028500010B50E4C0E4A20460021FEF76DFD0D4BC3
:10286000C4F854340C4C0D4A20460021FEF764FD98
:102870000B4BC4F854340B4C0B4A00212046FEF796
:102880005BFD0A4BC4F8543410BD00BFE8100020B3
:10289000D92600080044004048150020E926000819
:1028A00000480040A8190020F9260008004C00400C
:1028B00038B52E4D037A002918BF0D46012B04466A
:1028C000C0F85C540BD12A4B984236D1294A136C7C
:1028D00043F4003313640B21262000F01FFFD4F8CB
:1028E0005434254A2968934203D002F5806293420A
:1028F00039D1224A02EB5102B2FBF1F29A60EA8826
:1029000042F0400292B21A612A8942F0010292B268
:102910005A61AA8842F4045141F02C01D96002F4B2
:10292000A05200211960B2F5806F19685B680CBF76
:102930007F23FF2384F8583438BD114B984207D1C8
:102940000C4A136C43F4802313640B212720C4E743
:102950000C4B9842C3D1074A136C43F40023136411
:102960000B213420B9E7084AC4E700BF483A000801
:10297000E8100020003802400010014000BD0105B1
:1029800048150020A819002080DE80020020704732
:10299000FEE70000704700004FF0FF307047000076
:1029A00000F000BF08B500F06BFB00F06DFABDE869
:1029B000084000F0F9B8000070470000022906D076
:1029C000032906D00129064818BF00207047054892
:1029D0007047032A9ABF044800EBC20000207047EA
:1029E000483C0008FC3B00080808002070B504467D
:1029F00008460D46FEF788F9C6B220460134037832
:102A00000BB9184670BD32462946FEF765F9002815
:102A1000F3D1012070BD00002DE9F04F80469BB03E
:102A200008460C461646FEF76FF93A49C5B22046ED
:102A3000FFF7DCFF08B10135EDB237492046FFF75B
:102A4000D5FF08B11035EDB2632D01AF0CD8DFF81A
:102A5000D490DFF8D4A03D4694F800B0BBF1000F4D
:102A60001CD185F800B003E021463846FDF75CFC38
:102A70003846FEF749F9C0B2431C5B0088E84800BD
:102A8000337003237370002302361946DAB2904282
:102A900006F1020636D81BB0BDE8F08FBBF1250F5A
:102AA0002BD107221B492046FEF716F940B9DAF868
:102AB00000302B60DAF804306B6007340835CBE760
:102AC000082215492046FEF707F9B0B91349AB1C97
:102AD00011F8012F100902F00F0210F8090012F886
:102AE000092003F8012C0E4A03F8020C914203F16D
:102AF0000203EDD118350834AEE785F800B0013493
:102B00000135A9E7FA5C06F8022C06F8011C01332E
:102B1000BCE700BFA83B0008B03B00080F7AFF1FCE
:102B20001B7AFF1FC23B0008B93B000808B52023F1
:102B300083F311880348FEF75FFD002383F31188B8
:102B400008BD00BF081E002010B50446052916D890
:102B5000DFE801F016150316161D202383F31188F4
:102B60000E4A0121FEF7FEFD20460D4A0221FEF726
:102B7000F9FD0C48FEF706FD002383F3118810BD14
:102B8000202383F311880748FEF7D8FCF4E72023BD
:102B900083F311880348FEF7E9FCEDE7583B000892
:102BA0007C3B0008081E002038B50C4D0C4C0D492C
:102BB0002A4604F10800FFF72FFF05F1CA0204F1CD
:102BC00010000949FFF728FF05F5CA7204F1180043
:102BD0000649BDE83840FFF71FBF00BFC8220020EC
:102BE00008080020D43B0008DE3B0008B03B00088A
:102BF000BFF34F8F024AD368DB03FCD4704700BF9A
:102C0000003C024008B5094B1B7873B9FFF7F0FF91
:102C1000074B1A69002ABFBF064A5A6002F1883280
:102C20005A601A6822F480621A6008BD26250020C6
:102C3000003C02402301674508B50B4B1B7893B954
:102C4000FFF7D6FF094B1A6942F000421A611A6871
:102C500042F480521A601A6822F480521A601A688C
:102C600042F480621A6008BD26250020003C024024
:102C70000B2870B513D80B4A0B4C137863B90B4E65
:102C80004FF0006144F8231056F8235001330C2B09
:102C90002944F7D10123137054F8200070BD00209F
:102CA00070BD00BF5825002028250020683C000882
:102CB000014B53F820007047683C00080C20704717
:102CC0000B2810B5044601D9002010BDFFF7D0FF36
:102CD000064B53F824301844C21A0BB9012010BD1A
:102CE00012680132F0D1043BF6E700BF683C0008EF
:102CF0000B2808B51BD8FFF77BFFFFF783FF0D49B3
:102D0000F323CB60FFF774FFC300DBB243F400731F
:102D100043F002030B610B6943F480330B61FFF74F
:102D200067FFFFF789FFBDE80840FFF7C9BF002034
:102D300008BD00BF003C02402DE9F047D40715460E
:102D40004DD41318B3F1016F49D2324B1B68DA0727
:102D500045D5314CFFF756FFF323E360FFF748FFFB
:102D60002F46401A40F20129032F884601EB000646
:102D700018D8294C40F201197B1A4344012B01EB6E
:102D8000000623692FD823F001032361FFF754FFC6
:102D90002846BDE8F087366851F8043CB34218D1A4
:102DA000043FE1E7B307E4D1236923F440732361CF
:102DB000236943EA090323610431D8F80030336002
:102DC000BFF34F8FFFF714FFE368002BE3D0F3232B
:102DD000E360236923F001032361FFF72DFF4FF028
:102DE000FF30BDE8F08723F440732361236943EA91
:102DF000090323618A4631F8023B3380BFF34F8FCA
:102E0000FFF7F6FE3688BAF80030B6B2B342B3D058
:102E1000DFE700BF00380240003C0240084908B527
:102E20000B7828B153B9FFF7EDFE01230B7008BDF5
:102E300023B1BDE808400870FFF7FEBE08BD00BF23
:102E400026250020014B186D704700BF0028004068
:102E5000094B1A6F120407D41A6F42F400721A67F2
:102E60001A6F42F400421A67044A136843F48073ED
:102E70001360034B18657047003802400070004033
:102E800000280040FEE7000010B5184CFEF7D8F807
:102E9000FEF752F800F0A4F8802215492046FEF70C
:102EA00087F9012344F8180C0374124B124AD968AD
:102EB00021F4E0610904090C0A431049DA60CA6888
:102EC00042F08072CA600E490A6842F001020A604C
:102ED0001022DA77202283F82220002383F311883E
:102EE00062B60848BDE81040FEF790B9DC0D00203E
:102EF000983C000800ED00E00003FA05F0ED00E06A
:102F0000001000E0A03C00082DE9F843194C1A4BD2
:102F10006769586A002504F114082E46226ABB68C6
:102F2000811A8B420CD96169414521D013441B1A87
:102F3000022B2CBFC0180230BDE8F843FEF7EABBF5
:102F4000134423623B68D7F80C90C3F804804345D0
:102F50006361FD6001D1FEF7D7FB86F31188386904
:102F6000C847202383F31188034B6769586AD5E764
:102F7000BDE8F883B40D0020000C0040034B5968F5
:102F80005A68521A9042FBD8704700BF001000E008
:102F900083691943037C81610A2B03D14369194278
:102FA00005D170470B2B06D143698B4303D1002316
:102FB0004361FEF74DB8704770B5046805460E468C
:102FC000AC4200D170BDE3683343E36016B12269BF
:102FD000134203D0A1686068FFF7DAFF2468EFE7C7
:102FE000034B044A1A60044B044A1A60704700BF3E
:102FF0005C270020602700205827002000000220C6
:1030000080B5074A536823F0010300AF5360EFF324
:103010000983683383F30988002383F3118880BD13
:1030200030EF00E098B5202300AF83F31188104BF8
:103030005B6813F4006318D0F1EE103AEFF30984E3
:103040004FF0807344F84C3C0A4BDB6844F8083C72
:10305000A4F1680383F30988FEF780F818B1064BE2
:1030600044F8503C98BD054BFAE783F3118898BDAE
:1030700000ED00E030EF00E0210300082403000829
:1030800008B500F061FB074800F012FCFEF752F9AA
:10309000FEF746FBFEF70AFAFFF78EFCBDE8084094
:1030A000FEF726BB5C3A000830B5039C017204337E
:1030B00004FB0325C361049B03630021059B00609F
:1030C0004060C16042610261856104624262816266
:1030D000C162436330BD00000022416A4161016169
:1030E000C2608262C2626FF00101FEF7EDB80000BB
:1030F00003694269934203D1C2680AB10020704754
:10310000181D704703691960C2680132C260C26944
:10311000134482690361934224BF436A036100211F
:10312000FEF7C6B838B504460D46E3683BB16269A0
:10313000131D1268A3621344E362002038BD237A92
:1031400033B929462046FEF7A3F80028EDDA38BD4A
:103150006FF00100FBE70000C368C269013BC36078
:103160004369134482694361934224BF436A4361C4
:1031700000238362036B03B11847704770B52023A7
:10318000044683F31188866A3EB9FFF7CBFF0546F4
:1031900018B186F31188284670BDA36AE26A13F855
:1031A000015BA362934202D32046FFF7D5FF0023C1
:1031B00083F31188EFE700002DE9F74F1F4604461F
:1031C0000E469146202383F311882A4B5A6A002524
:1031D000BA18009207F1FF3A9846AB46A36AABB91A
:1031E0001AF1030F06D939462046FFF79BFF68B155
:1031F000002305E0D8F82410009A511A8F42F3D228
:1032000083F31188284603B0BDE8F08FA16AE36A12
:10321000A9EB05025B1A934228BF1346402B1CD929
:10322000334601F1400251F8040B43F8040B91427C
:10323000F9D1A36A40334036A3624035A26AE36AFB
:103240009A4202D32046FFF787FF8BF311884D4542
:10325000D8D2202383F31188C0E71A463046019361
:10326000FDF730FD019BA26A1A441E44A2621D4470
:10327000E4E700BF000C004010B5029C017204336B
:1032800003FB0421C36100238362C362039B0363C6
:10329000049B00604060C46042610261816104621D
:1032A0004262436310BD0000026AC260426A42612A
:1032B000026100228262C2626FF00101FEF704B86F
:1032C000436902699A4203D1C2680AB1002070477B
:1032D000184650F8043B0B6070470000C368C26991
:1032E0000133C3604369134482694361934224BF3D
:1032F000436A43610021FDF7DBBF000038B5044697
:103300000D46E3683BB123691A1DA262E2691344CA
:10331000E362002038BD237A33B929462046FDF701
:10332000B7FF0028EDDA38BD6FF00100FBE70000C1
:1033300003691960C268013AC260C26913448269B4
:103340000361934224BF436A036100238362036BDA
:1033500003B118477047000070B5202304460E469D
:1033600083F31188856A35B91146FFF7C7FF10B19D
:1033700085F3118870BDA36A1E70A36AE26A0133E7
:103380009342A36204D3E16920460439FFF7D0FFDA
:10339000002080F3118870BD2DE9F74F1F460446C9
:1033A0000D469146202383F311882A4B5A6A002642
:1033B000BA18009207F1FF3A9846B346A36AABB930
:1033C0001AF1030F06D939462046FFF797FF68B177
:1033D000002305E0D8F82410009A511A8F42F3D246
:1033E00083F31188304603B0BDE8F08FA06AE36A2A
:1033F000A9EB06021B1A934228BF1346402B1CD987
:1034000005F1400355F8042B40F8042B9D42F9D1F7
:10341000A36A4033A3624036A26AE36A9A4204D3A5
:10342000E16920460439FFF783FF8BF311884E458D
:10343000D8D2202383F31188C0E71A462946019386
:10344000FDF740FC019BA26A1A441D44A2621E447F
:10345000E2E700BF000C0040026943699A4203D1D1
:10346000C3681BB9184670470023FBE7836A002B2B
:10347000F8D0043B9B1AF5D01360C368013BC360CE
:10348000C3691A44836902619A4224BF436A036193
:10349000002383620123E5E710B50A440024C361D9
:1034A000029B006040608460C16081614161026193
:1034B000036210BD08B582694369934201D18268F5
:1034C00082B98268013282605A1C42611970426975
:1034D00003699A4201D3C36843610021FDF7E8FE06
:1034E000002008BD4FF0FF3008BD000070B520235C
:1034F00004460E4683F31188A568A5B1A368A269A6
:10350000013BA360531CA36115782269934224BF39
:10351000E368A361E3690BB120469847002383F376
:103520001188284670BD31462046FDF7B1FE0028BF
:10353000E2DA85F3118870BD2DE9F04F1E4685B0A3
:10354000044688469146D0F81CA0202383F31188B6
:10355000214F7A6A0293B21800250192AB46A36804
:103560001BB3A368013BA360A369591CA1611B782D
:1035700088F800302369A169994224BFE368A361F8
:1035800008F10102BAF1000F03D003922046D047A0
:10359000039A8BF31188B9F1010905F1010516D0E1
:1035A000029B83F311889046D9E7721E033207D934
:1035B00031462046FDF76CFE0028D0D0002304E001
:1035C000796A019A511A8E42F3D283F31188284600
:1035D00005B0BDE8F08F00BF000C0040C160816104
:1035E0004161C3611144009B0060406082600161E1
:1035F00003627047F8B504460E461746202383F34E
:103600001188A568A5B1A368013BA36063695A1C32
:1036100062611E70236962699A4224BFE368636134
:10362000E3690BB120469847002080F31188F8BD6C
:1036300039462046FDF72CFE0028E2DA85F3118892
:10364000F8BD0000836942699A4210B501D18268D1
:103650007AB98268013282605A1C82611C780369DF
:103660009A4201D3C36883610021FDF721FE204601
:1036700010BD4FF0FF3010BD2DE9F04F1E4685B054
:10368000044688469146D0F81CA0202383F3118875
:10369000214F7A6A0293B21800250192AB46A368C3
:1036A0001BB3A368013BA36063695A1C626198F86D
:1036B0000010197023696169994224BFE36863614E
:1036C00008F10102BAF1000F03D003922046D0475F
:1036D000039A8BF31188B9F1010905F1010516D0A0
:1036E000029B83F311889046D9E7721E033207D9F3
:1036F00031462046FDF7CCFD0028D0D0002304E061
:10370000796A019A511A8E42F3D283F311882846BE
:1037100005B0BDE8F08F00BF000C004000F1604331
:1037200000F01F02400903F5614309018000C9B29E
:1037300000F1604083F8001300F5614001239340DD
:10374000C0F8803103607047144B00211A694FF0B4
:10375000FF321A61196158695A615961186A60F03B
:10376000805018621962586A5A6259621A6C42F0A3
:1037700080521A640A4A106840F480701060186F12
:1037800000F44070B0F5007F1EBF4FF48030186722
:103790001967536823F40073536070470038024080
:1037A00000700040314B4FF080521A64304A4FF4A1
:1037B000404111601A6842F001021A601A689207CB
:1037C000FCD59A6822F003029A609A689A60274BA7
:1037D00019469A6812F00C02FBD1186800F0F90043
:1037E00018609A601A6842F480321A600B689B0372
:1037F000FCD54B6F43F001034B671C4B5A6F90078E
:10380000FCD51C4A5A601A6842F080721A60184A45
:1038100053685904FCD5154B1A689201FCD5164A19
:103820009A60164B1A68164B9A42164B1AD1164AD2
:103830001168164A914215D140F205121A600B4BDD
:103840009A6842F002029A609A6802F00C02082A12
:10385000FAD15A6C42F480425A645A6E42F4804261
:103860005A66704740F20572E8E700BF0038024030
:10387000007000401854400700948838002004E08D
:1038800011640020003C024000ED00E041C20F4105
:103890004B6843608B688360CB68C3600B6943618E
:1038A0004B6903628B6943620B68036070470000D9
:1038B0001C4B0246186B10B540F2FF1420431863EE
:1038C000196D1948214319651146FFF7E1FF1748A3
:1038D00002F11C01FFF7DCFF154802F13801FFF788
:1038E000D7FF144802F15401FFF7D2FF124802F14A
:1038F0007001FFF7CDFF114802F18C01FFF7C8FFFF
:103900000F4802F1A801FFF7C3FF0E4802F1C401FE
:10391000FFF7BEFF0C4802F1E001BDE81040FFF7E1
:10392000B7BF00BF00380240000002400004024060
:1039300000080240000C0240001002400014024047
:1039400000180240001C0240002002401210121316
:103950001211000053544D3332463F3F3F000000E8
:1039600000000000543900083F000000130400006C
:10397000A03900083F00000019040000AA3900081F
:103980003F00000021040000B43900083F0000009F
:10399000081E0020A8190020E8100020481500206B
:1039A00053544D3332463430780053544D333246FD
:1039B0003432780053544D3332463434365858003C
:1039C00001130008ED120008291300081513000860
:1039D000211300080D130008F9120008E512000871
:1039E0002914000815140008511400083D1400089B
:1039F0004914000835140008211400080D140008AB
:103A000000000000010000000000000000000000B5
:103A100065180008411B0008DD1B0008400040003D
:103A2000D0100020D010002001000000E010002085
:103A30008000000040010000030000007573625F19
:103A400070756D700000000000960000000000001E
:103A50000000000000000000000000000A008002DA
:103A600000020000AAAAAAAA05000000FFFF0000A9
:103A70008800000000A00A00000000000000000014
:103A8000AAAAAAAA00000000FFFF00000000000090
:103A9000000000004000000000000000AAAAAAAA3E
:103AA00000000000FFFF0000000000000000000018
:103AB00080299A0100000000AAAAAAAA401555016F
:103AC000FFFF00000070700777700000000000002A
:103AD00000000000AAAAAAAA00000000FFFF000040
:103AE00000000000000000000000000000000000D6
:103AF000AAAAAAAA00000000FFFF00000000000020
:103B0000000000000000000000000000AAAAAAAA0D
:103B100000000000FFFF00000000000000000000A7
:103B200000000000000000000A000000000000008B
:103B30000300000000000000000000000000000082
:103B40000000000000000000000000000000000075
:103B50000000000000000000020000000000000063
:103B600045160008AD1600084000400098220020CD
:103B7000A822002002000000000000000300000056
:103B800000000000ED16000800000000100000001A
:103B9000B82200200000000001000000000000002A
:103BA000F80D00200101020025424F41524425003A
:103BB0002553455249414C25006D696E692D706948
:103BC0007800303132333435363738394142434466
:103BD000454600004172647550696C6F740025425F
:103BE0004F415244252D424C00000000492B000853
:103BF000BD290008B11500082D2B00084300000066
:103C0000043C000809024300020100C0320904001C
:103C10000001020201000524001001052401000139
:103C2000042402020524060001070582030800FFA0
:103C300009040100020A000000070501024000001B
:103C4000070581024000000012000000503C0008FF
:103C500012011001020000408304405700020102DB
:103C600003010000040309040040000000400000BC
:103C700000400000004000000000010000000200C1
:103C8000000002000000020000000200000002002C
:103C900000000200000002006D61696E000000007B
:103CA000B83C0008602500205827002001000000D3
:103CB000852E00080000000069646C6500000000AB
:103CC000FF0096000000000804000000643C0008AB
:103CD00000000000000000000000000000000000E4
:103CE0000000000000000000FFFFFFFFFFFFFFFFDC
:103CF000FFFFFFFFFFFFFFFFFFFFFFFFFFFFFFFFD4
:103D0000FFFFFFFFFFFFFFFFFFFFFFFFFFFFFFFFC3
:103D1000FFFFFFFFFFFFFFFFFFFFFFFFFFFFFFFFB3
:103D2000FFFFFFFFFFFFFFFFFFFFFFFFFFFFFFFFA3
:104000000004002095520008D1F40608D5F40608F3
:1040100025F50608D5F40608FDF40608913B0B08C3
:10402000913B0B08913B0B08913B0B081DCE0B08F5
:10403000913B0B08913B0B08913B0B08913B0B0804
:10404000913B0B08A9D90B0879DA0B08ADDA0B08FC
:10405000913B0B08913B0B08D5D70B0805D80B08F3
:1040600035D80B0865D80B0895D80B0839610B08B3
:1040700065610B0895610B08C5610B08F5610B08BC
:1040800021620B0851620B08F15F0B08913B0B0892
:10409000913B0B08913B0B08913B0B08C5D80B08D3
:1040A000913B0B08913B0B08913B0B08913B0B0894
:1040B000913B0B08913B0B08913B0B08756A0B0871
:1040C0008D6A0B08B96A0B08D16A0B08913B0B0883
:1040D000913B0B08913B0B0841870B0859870B0854
:1040E00031D90B08DDD90B0811DA0B08913B0B080D
:1040F000A5830B08913B0B088D830B0881620B088D
:10410000913B0B084D7C0B08C5810B08913B0B08BC
:1041100071870B08913B0B08913B0B08913B0B08F7
:10412000B1620B08DD620B080D630B083D630B08E1
:104130006D630B08913B0B08913B0B08913B0B08FF
:10414000913B0B08913B0B08913B0B088D760B08BC
:1041500099630B08C9630B08F9630B08913B0B08C3
:10416000913B0B08913B0B08913B0B08913B0B08D3
:1041700045DA0B08913B0B08913B0B08913B0B0870
:10418000913B0B08913B0B08913B0B08913B0B08B3
:10419000913B0B08913B0B08913B0B08913B0B08A3
:1041A000913B0B08913B0B08913B0B08913B0B0893
:1041B000913B0B08913B0B08913B0B08913B0B0883
:1041C000913B0B08913B0B08913B0B08913B0B0873
:1041D000913B0B08913B0B08913B0B08913B0B0863
:1041E00089490108617A0108B9200208B936020834
:1041F000F5DB0308C135040825380408F50A05086D
:1042000011120508F5170508512F050869A80508BA
:104210003136060801F90608D11B0A084D330A0891
:10422000F5500A08453B0B080000000000000000A4
:10423000D0400B1CD1409C46203AD34018435242F8
:104240006346934018437047D0400B1C1141203AFD
:1042500003D49C461341184363465242934018438B
:10426000704700BF9140031C90409C46203A934009
:10427000194352426346D3401943704781F00041CD
:1042800002E000BF83F0004330B54FEA41044FEA3B
:10429000430594EA050F08BF90EA020F1FBF54EAD6
:1042A000000C55EA020C7FEA645C7FEA655C00F072
:1042B000E2804FEA5454D4EB5555B8BF6D420CDD43
:1042C0002C4480EA020281EA030382EA000083EAC6
:1042D000010180EA020281EA0303362D88BF30BD66
:1042E00011F0004F4FEA01314FF4801C4CEA1131BC
:1042F00002D0404261EB410113F0004F4FEA03331B
:104300004CEA133302D0524263EB430394EA050FA5
:1043100000F0A780A4F10104D5F1200E0DDB02FA14
:104320000EFC22FA05F2801841F1000103FA0EF2A8
:10433000801843FA05F359410EE0A5F120050EF16E
:10434000200E012A03FA0EFC28BF4CF0020C43FA9F
:1043500005F3C01851EBE37101F0004507D54FF0AC
:10436000000EDCF1000C7EEB00006EEB0101B1F5FC
:10437000801F1BD3B1F5001F0CD349085FEA300042
:104380004FEA3C0C04F101044FEA445212F5800F4D
:1043900080F09A80BCF1004F08BF5FEA500C50F1EA
:1043A000000041EB045141EA050130BD5FEA4C0CCD
:1043B000404141EB010111F4801FA4F10104E9D156
:1043C00091F0000F04BF01460020B1FA81F308BF4D
:1043D0002033A3F10B03B3F120020CDA0C3208DD19
:1043E00002F1140CC2F10C0201FA0CF021FA02F1F4
:1043F0000CE002F11402D8BFC2F1200C01FA02F164
:1044000020FA0CFCDCBF41EA0C019040E41AA2BF88
:1044100001EB0451294330BD6FEA04041F3C1CDA50
:104420000C340EDC04F11404C4F1200220FA04F070
:1044300001FA02F340EA030021FA04F345EA03011A
:1044400030BDC4F10C04C4F1200220FA02F001FADC
:1044500004F340EA0300294630BD21FA04F029465E
:1044600030BD94F0000F83F4801306BF81F48011F7
:104470000134013D4EE77FEA645C18BF7FEA655C6A
:1044800029D094EA050F08BF90EA020F05D054EA3C
:10449000000C04BF1946104630BD91EA030F1EBF41
:1044A0000021002030BD5FEA545C05D14000494145
:1044B00028BF41F0004130BD14F580043CBF01F538
:1044C000801130BD01F0004545F0FE4141F470011E
:1044D0004FF0000030BD7FEA645C1ABF19461046F9
:1044E0007FEA655C1CBF0B46024650EA013406BFFA
:1044F00052EA033591EA030F41F4002130BD00BFB9
:1045000090F0000F04BF0021704730B54FF4806475
:1045100004F132044FF000054FF0000150E700BFF6
:1045200090F0000F04BF0021704730B54FF4806455
:1045300004F1320410F0004548BF40424FF0000142
:104540003EE700BF42004FEAE2014FEA31014FEA85
:1045500002701FBF12F07F4393F07F4F81F06051D4
:10456000704792F0000F14BF93F07F4F704730B543
:104570004FF4607401F0004521F0004120E700BFD6
:1045800050EA010208BF704730B54FF000050AE05D
:1045900050EA010208BF704730B511F0004502D55E
:1045A000404261EB41014FF4806404F132045FEA60
:1045B000915C3FF4DCAE4FF003025FEADC0C18BF05
:1045C00003325FEADC0C18BF033202EBDC02C2F1FB
:1045D000200300FA03FC20FA02F001FA03FE40EA8D
:1045E0000E0021FA02F11444C1E600BF70B54FF08D
:1045F000FF0C4CF4E06C1CEA11541DBF1CEA13556F
:1046000094EA0C0F95EA0C0F00F0DEF82C4481EAD6
:10461000030621EA4C5123EA4C5350EA013518BFF6
:1046200052EA033541F4801143F4801338D0A0FBE3
:1046300002CE4FF00005E1FB02E506F00042E0FB90
:1046400003E54FF00006E1FB03569CF0000F18BF96
:104650004EF0010EA4F1FF04B6F5007F64F540743E
:1046600004D25FEA4E0E6D4146EB060642EAC621D1
:1046700041EA55514FEAC52040EA5E504FEACE2E3E
:10468000B4F1FD0C88BFBCF5E06F1ED8BEF1004F41
:1046900008BF5FEA500E50F1000041EB045170BDBD
:1046A00006F0004646EA010140EA020081EA030101
:1046B000B4EB5C04C2BFD4EB0C0541EA045170BDFD
:1046C00041F480114FF0000E013C00F3AB8014F177
:1046D000360FDEBF002001F0004170BDC4F10004C0
:1046E000203C35DA0C341BDC04F11404C4F1200541
:1046F00000FA05F320FA04F001FA05F240EA02009C
:1047000001F0004221F0004110EBD37021FA04F6D1
:1047100042EB06015EEA430E08BF20EAD37070BD8B
:10472000C4F10C04C4F1200500FA04F320FA05F0EA
:1047300001FA04F240EA020001F0004110EBD370EC
:1047400041F100015EEA430E08BF20EAD37070BD5C
:10475000C4F1200500FA05F24EEA020E20FA04F335
:1047600001FA05F243EA020321FA04F001F00041E4
:1047700021FA04F220EA020000EBD3705EEA430E55
:1047800008BF20EAD37070BD94F0000F0FD101F084
:104790000046400041EB010111F4801F08BF013CBD
:1047A000F7D041EA060195F0000F18BF704703F0FB
:1047B0000046520043EB030313F4801F08BF013D82
:1047C000F7D043EA0603704794EA0C0F0CEA13553E
:1047D00018BF95EA0C0F0CD050EA410618BF52EAF8
:1047E0004306D1D181EA030101F000414FF00000FE
:1047F00070BD50EA410606BF1046194652EA43060C
:1048000019D094EA0C0F02D150EA013613D195EA7F
:104810000C0F05D152EA03361CBF104619460AD1C7
:1048200081EA030101F0004141F0FE4141F47001D1
:104830004FF0000070BD41F0FE4141F4780170BDC1
:1048400070B54FF0FF0C4CF4E06C1CEA11541DBF26
:104850001CEA135594EA0C0F95EA0C0F00F0A7F828
:10486000A4EB050481EA030E52EA03354FEA013155
:1048700000F088804FEA03334FF0805545EA131368
:1048800043EA12634FEA022245EA111545EA106530
:104890004FEA00260EF000419D4208BF964244F1C7
:1048A000FD0404F5407402D25B084FEA3202B61AE6
:1048B00065EB03055B084FEA32024FF480104FF4BA
:1048C000002CB6EB020E75EB030E22BFB61A75462E
:1048D00040EA0C005B084FEA3202B6EB020E75EBC1
:1048E000030E22BFB61A754640EA5C005B084FEA29
:1048F0003202B6EB020E75EB030E22BFB61A7546F6
:1049000040EA9C005B084FEA3202B6EB020E75EB00
:10491000030E22BFB61A754640EADC0055EA060EC1
:1049200018D04FEA051545EA16754FEA06164FEA04
:10493000C30343EA52734FEAC2025FEA1C1CC0D1B0
:1049400011F4801F0BD141EA00014FF000004FF03D
:10495000004CB6E711F4801F04BF01430020B4F1FE
:10496000FD0C88BFBCF5E06F3FF6AFAEB5EB030CB6
:1049700004BFB6EB020C5FEA500C50F1000041EBB3
:10498000045170BD0EF0004E4EEA113114EB5C0480
:10499000C2BFD4EB0C0541EA045170BD41F4801153
:1049A0004FF0000E013C90E645EA060E8DE60CEA5B
:1049B000135594EA0C0F08BF95EA0C0F3FF43BAF78
:1049C00094EA0C0F0AD150EA01347FF434AF95EA2F
:1049D0000C0F7FF425AF104619462CE795EA0C0F13
:1049E00006D152EA03353FF4FDAE1046194622E7E0
:1049F00050EA410618BF52EA43067FF4C5AE50EABA
:104A000041047FF40DAF52EA43057FF4EBAE12E7A9
:104A10004FF0FF3C06E000BF4FF0010C02E000BF8A
:104A20004FF0010C4DF804CD4FEA410C7FEA6C5C6D
:104A30004FEA430C18BF7FEA6C5C1BD001B050EA10
:104A4000410C0CBF52EA430C91EA030F02BF90EAFB
:104A5000020F0020704710F1000F91EA030F58BFBA
:104A6000994208BF90422CBFD8176FEAE37040F01C
:104A7000010070474FEA410C7FEA6C5C02D150EABA
:104A8000013C07D14FEA430C7FEA6C5CD6D152EA75
:104A9000033CD3D05DF8040B704700BF844610463A
:104AA00062468C461946634600E000BF01B5FFF739
:104AB000B7FF002848BF10F1000F01BD4DF808ED09
:104AC000FFF7F4FF0CBF012000205DF808FB00BFDA
:104AD0004DF808EDFFF7EAFF34BF012000205DF834
:104AE00008FB00BF4DF808EDFFF7E0FF94BF012081
:104AF00000205DF808FB00BF4DF808EDFFF7CEFF82
:104B000094BF012000205DF808FB00BF4DF808EDC0
:104B1000FFF7C4FF34BF012000205DF808FB00BF91
:104B20004FEA410C7FEA6C5C02D150EA013C0AD1A9
:104B30004FEA430C7FEA6C5C02D152EA033C02D19B
:104B40004FF0000070474FF0010070474FEA4102FC
:104B500012F5001215D211D56FF47873B3EB6252CF
:104B600012D94FEAC12343F0004343EA505311F0F6
:104B7000004F23FA02F018BF404270474FF0000088
:104B8000704750EA013005D111F0004008BF6FF0C6
:104B9000004070474FF00000704700BF4A0011D23C
:104BA00012F5001211D20DD56FF47873B3EB625287
:104BB0000ED44FEAC12343F0004343EA505323FA93
:104BC00002F070474FF00000704750EA013002D108
:104BD0004FF0FF3070474FF0000070474FEA41023E
:104BE000B2F1E04324BFB3F5001CDCF1FE5C0DD94B
:104BF00001F0004C4FEAC0024CEA5070B2F1004F95
:104C000040EB830008BF20F00100704711F0804F97
:104C100021D113F13872BCBF01F00040704741F45C
:104C200080114FEA5252C2F11802C2F1200C10FA60
:104C30000CF320FA02F018BF40F001004FEAC12344
:104C40004FEAD32303FA0CFC40EA0C0023FA02F3E8
:104C50004FEA4303CCE77FEA625307D150EA0133BE
:104C60001EBF4FF0FE4040F44000704701F000408E
:104C700040F0FE4040F40000704700BF80F000406C
:104C800002E000BF81F0004142001FBF5FEA410324
:104C900092EA030F7FEA226C7FEA236C6AD04FEA24
:104CA0001262D2EB1363C1BFD21841404840414069
:104CB000B8BF5B42192B88BF704710F0004F40F41B
:104CC000000020F07F4018BF404211F0004F41F437
:104CD000000121F07F4118BF494292EA030F3FD003
:104CE000A2F1010241FA03FC10EB0C00C3F1200316
:104CF00001FA03F100F0004302D5494260EB4000A5
:104D0000B0F5000F13D3B0F1807F06D340084FEA0F
:104D1000310102F10102FE2A51D2B1F1004F40EB04
:104D2000C25008BF20F0010040EA0300704749006C
:104D300040EB000010F4000FA2F10102EDD1B0FA37
:104D400080FCACF1080CB2EB0C0200FA0CF0AABF2C
:104D500000EBC25052421843BCBFD04018437047CA
:104D600092F0000F81F4000106BF80F400000132D0
:104D7000013BB5E74FEA41037FEA226C18BF7FEAA7
:104D8000236C21D092EA030F04D092F0000F08BFE9
:104D90000846704790EA010F1CBF0020704712F0D0
:104DA0007F4F04D1400028BF40F00040704712F10F
:104DB00000723CBF00F50000704700F0004343F074
:104DC000FE4040F4000070477FEA226216BF0846AA
:104DD0007FEA23630146420206BF5FEA412390EA6D
:104DE000010F40F4800070474FF0000304E000BF63
:104DF00010F0004348BF40425FEA000C08BF704714
:104E000043F0964301464FF000001CE050EA0102D7
:104E100008BF70474FF000030AE000BF50EA0102EC
:104E200008BF704711F0004302D5404261EB4101D9
:104E30005FEA010C02BF84460146002043F0B643FE
:104E400008BFA3F18053A3F50003BCFA8CF2083A23
:104E5000A3EBC25310DB01FA02FC634400FA02FC2C
:104E6000C2F12002BCF1004F20FA02F243EB020033
:104E700008BF20F00100704702F1200201FA02FC95
:104E8000C2F1200250EA4C0021FA02F243EB020088
:104E900008BF20EADC7070477BB972B90029BEBF39
:104EA00000204FF0004106E008BF00281CBF6FF053
:104EB00000414FF0FF3000F0EBB9ADF1080C6DE9A7
:104EC00004CE002909DB002B1ADB00F073F8DDF8B3
:104ED00004E0DDE9022304B07047404261EB410188
:104EE000002B1BDB00F066F8DDF804E0DDE90223AF
:104EF00004B0404261EB4101524263EB430370470F
:104F0000524263EB430300F055F8DDF804E0DDE9BD
:104F1000022304B0404261EB41017047524263EB0F
:104F2000430300F047F8DDF804E0DDE9022304B0B4
:104F3000524263EB4303704753B94AB9002908BF93
:104F400000281CBF4FF0FF314FF0FF3000F0A0B938
:104F5000ADF1080C6DE904CE00F02CF8DDF804E0AA
:104F6000DDE9022304B07047D0B5FFF7EBFA002269
:104F70000E4B06460F46FFF739FBFFF70FFE0446C0
:104F8000FFF7BEFA00220A4BFFF730FB02460B4642
:104F900030463946FFF776F9FFF700FE2346002238
:104FA00042EA000210461946D0BD00BF0000F03DA5
:104FB0000000F0412DE9F0478C460D460446089E5E
:104FC000002B51D18A4217466DD9B2FA82FEBEF14A
:104FD000000F0BD0CEF1200C01FA0EF520FA0CFCDC
:104FE00002FA0EF74CEA050C00FA0EF44FEA174AE3
:104FF000250CBCFBFAF81FFA87F90AFB18CC45EA26
:105000000C4508FB09F3AB420AD9ED1908F1FF3250
:1050100080F02381AB4240F22081A8F102083D4498
:10502000ED1AA4B2B5FBFAF00AFB105544EA0544A8
:1050300000FB09F9A14509D9E41900F1FF3380F01B
:105040000A81A14540F2078102383C44A4EB0904DF
:1050500040EA08400021002E61D024FA0EF400231B
:1050600034607360BDE8F0878B4207D9002E54D0BE
:10507000002186E821000846BDE8F087B3FA83F1F5
:10508000002940F08E80AB4202D3824200F2FA80C7
:10509000841A65EB03050120AC46002E3FD086E85C
:1050A0001010BDE8F08712B90127B7FBF2F7B7FA85
:1050B00087FEBEF1000F34D1EB1B3A0C1FFA87FCC0
:1050C0000121B3FBF2F8250C02FB183345EA034536
:1050D0000CFB08F3AB4207D9ED1908F1FF3002D2FF
:1050E000AB4200F2D1808046ED1AA3B2B5FBF2F0DC
:1050F00002FB105543EA05440CFB00FCA44507D90C
:10510000E41900F1FF3302D2A44500F2B88018463A
:10511000A4EB0C0440EA08409DE731463046BDE868
:10512000F087CEF1200405FA0EF307FA0EF720FA05
:1051300004F83A0C25FA04F448EA0308B4FBF2F147
:105140004FEA184502FB11441FFA87FC45EA044563
:1051500001FB0CF3AB4200FA0EF409D9ED1901F191
:10516000FF3080F08A80AB4240F2878002393D44B4
:10517000EB1A1FFA88F5B3FBF2F002FB103345EA95
:10518000034500FB0CF3AB4207D9ED1900F1FF38E2
:105190006FD2AB426DD902383D44EB1A40EA01416F
:1051A0008FE7C1F1200722FA07F88B4005FA01F4D6
:1051B00048EA030320FA07FE4FEA134CFD404EEA8B
:1051C000040EB5FBFCF94FEA1E440CFB19551FFAFF
:1051D00083F844EA054509FB08F4AC4202FA01F2FF
:1051E00000FA01FA08D9ED1809F1FF3043D2AC42B8
:1051F00041D9A9F102091D442D1B1FFA8EFEB5FBF2
:10520000FCF00CFB10554EEA054400FB08F8A045E5
:1052100007D9E41800F1FF3529D2A04527D9023873
:105220001C4440EA0940A4EB0804A0FB02894C4559
:10523000C6464D4615D312D056B1BAEB0E0364EBF9
:10524000050404FA07F7CB401F43CC403760746075
:105250000021BDE8F0871846F8E69046E0E6C24532
:10526000EAD2B8EB020E69EB03050138E4E7284601
:10527000D7E7404691E78146BEE7014678E7023826
:105280003C4445E7084608E7A8F102083D442BE7FF
:10529000704700BF72B6374880F3098836484EF62B
:1052A0000851CEF20001086040F20000CCF200008C
:1052B0004EF63471CEF200010860BFF34F8FBFF39A
:1052C0006F8F40F20000C0F2F0004EF68851CEF22F
:1052D00000010860BFF34F8FBFF36F8F4FF00000E6
:1052E000E1EE100A4EF63C71CEF200010860062095
:1052F00080F31488BFF36F8FAEF02CFCB3F044FB47
:105300004FF055301D491E4A91423CBF41F8040BF5
:10531000FAE71C49174A91423CBF41F8040BFAE7EF
:1053200019491A4A1A4B9A423EBF51F8040B42F8E7
:10533000040BF8E700201749174A91423CBF41F897
:10534000040BFAE7AEF00AFCB3F020FB134C144D4B
:10535000AC4203DA54F8041B8847F9E70EF026FC48
:10536000104C114DAC4203DA54F8041B8847F9E79E
:10537000AEF0F2BB00080020004000080000002052
:105380000004002000040020207C0D0800080020FC
:105390004C14002050140020F0F20020E0410008DE
:1053A0002842000828420008284200082DE9F04F52
:1053B0002DED108AC1F80CD0C3689D46BDEC108A53
:1053C000BDE8F08FAFF078F8002383F3118828460A
:1053D000A0470020AEF054FFAFF068F8AEF06AFED0
:1053E000AFF06AF800DFFEE794329FE5F0412DE967
:1053F0000251C0E3030055E10040A0E10060A0E1DC
:10540000070000DA7C329FE5030055E14F0000CA37
:10541000000050E370029FD570029FC5F041BDE8C7
:105420001EFF2FE168329FE5030055E1540000CADA
:10543000310455E3490000BA0070E0E30410A0E134
:105440000400A0E1081200FA0010A0E10080A0E131
:10545000051200FA0050A0E138129FE5021200FA8E
:1054600034129FE507FEFFFA0510A0E1FE1100FAD5
:1054700028129FE503FEFFFA0510A0E1FA1100FAD9
:105480001C129FE5FFFDFFFA0510A0E1F61100FADE
:1054900010129FE5FBFDFFFA0510A0E1F21100FAE2
:1054A00004129FE5F7FDFFFA0810A0E1EE1100FAE3
:1054B000F8119FE50080A0E10500A0E1EA1100FAE3
:1054C000EC119FE5EEFDFFFA0510A0E1E61100FAF0
:1054D000E0119FE5EAFDFFFA0510A0E1E21100FAF4
:1054E000D4119FE5E6FDFFFA0510A0E1DE1100FAF8
:1054F000C8119FE5E2FDFFFA0510A0E1DA1100FAFC
:10550000010077E30010A0E10800A0E13200000AEA
:10551000AC519FE5DBFDFFFA0410A0E1D21100FAC7
:10552000073185E0101093E5D5FDFFFA0410A0E1E6
:10553000D3FDFFFA0010A0E1070195E7D0FDFFFAC7
:10554000000056E3020180B2F041BDE81EFF2FE1EA
:105550000010A0E1CBFDFFFAF041BDE81EFF2FE1F6
:1055600060119FE5C7FDFFFAFE15A0E39C1200FA4B
:10557000000050E30400A011AEFFFF0AF041BDE8B7
:105580001EFF2FE1B80000EB3C319FE5030055E121
:105590000040A0E1170000CA1A3743E2030055E1BA
:1055A0002B0000CA0010A0E1B6FDFFFAFE15A0E333
:1055B000B3FDFFFA0111A0E30050A0E10400A0E157
:1055C000B0FDFFFA0010A0E10500A0E1001200FA12
:1055D0000070A0E30040A0E197FFFFEAA9FDFFFAF9
:1055E0000410A0E1A01100FA0010A0E10400A0E165
:1055F000A3FDFFFA88FFFFEAD0309FE5030055E1E5
:105600000D0000CAFF15A0E39DFDFFFAFF15A0E302
:105610000050A0E10400A0E1931100FAFE15A0E300
:1056200098FDFFFA0010A0E10500A0E1E81100FAE2
:105630000270A0E30040A0E17FFFFFEA0010A0E1BC
:105640008C009FE5E21100FA0370A0E30040A0E1A6
:1056500079FFFFEAFE15A0E389FDFFFAFE15A0E33E
:105660000050A0E10400A0E186FDFFFA0010A0E1D7
:105670000500A0E1D61100FA0170A0E30040A0E10E
:105680006DFFFFEAFFFF7F500000807FDB0FC9BF87
:10569000DB0FC93FFFFFDF3ED769853C59DA4B3D41
:1056A000356B883D6E2EBA3D2549123EABAAAA3E07
:1056B00021A215BD6BF16E3D95879D3D388EE33D72
:1056C000CDCC4C3E20E50B08CAF24971FFFF973F55
:1056D000FFFF1B40000080BFF0412DE90271C0E3D5
:1056E000A74BA0E17F4044E2160054E30050A0E144
:1056F000120000CA000054E30080A0E1190000BAC3
:1057000094709FE55774A0E1070010E10E00000AB5
:1057100088109FE55BFDFFFA0010A0E3301200FA4D
:10572000000050E30800000A000055E30235A0C362
:10573000538485C00700C8E1F041BDE81EFF2FE19A
:105740005C309FE5030057E10200008A0500A0E1FC
:10575000F041BDE81EFF2FE10010A0E149FDFFFA76
:10576000F041BDE81EFF2FE130109FE545FDFFFA37
:105770000010A0E31A1200FA000050E3F2FFFF0A43
:10578000000055E30201A0B3F0FFFFBA000057E3A9
:10579000FE05A013EDFFFF1AEBFFFFEAFFFF7F00FE
:1057A000CAF24971FFFF7F7F04E02DE5B0209FE53D
:1057B0000231C0E3020053E10CD04DE2150000DAE3
:1057C000A0209FE5020053E1040000DA0010A0E1F0
:1057D0002BFDFFFA0CD08DE204E09DE41EFF2FE1CB
:1057E0000D10A0E1C70A00EB032000E2010052E324
:1057F0001200000A020052E30B00000A000052E30C
:105800001300000A0120A0E304109DE500009DE5BF
:10581000F60E00EBEEFFFFEA0010A0E3130C00EB26
:105820000CD08DE204E09DE41EFF2FE104109DE505
:1058300000009DE50D0C00EB020180E2E4FFFFEAB1
:1058400004109DE500009DE5E80E00EB020180E2FA
:10585000DFFFFFEA04109DE500009DE5030C00EB6F
:10586000DBFFFFEAD80F493FFFFF7F7F0201C0E364
:105870001EFF2FE170402DE90140A0E10050A0E1A2
:10588000250000EB000050E30200001A0400A0E134
:105890007040BDE81EFF2FE10400A0E11E0000EBF8
:1058A000000050E30400000A0410A0E10500A0E19C
:1058B000CB1100FA000050E3F3FFFF0A0500A0E15E
:1058C0007040BDE81EFF2FE170402DE90140A0E1CE
:1058D0000050A0E1100000EB000050E30200001AAD
:1058E0000400A0E17040BDE81EFF2FE10400A0E12C
:1058F000090000EB000050E30400000A0410A0E1DE
:105900000500A0E1A71100FA000050E3F3FFFF0A31
:105910000500A0E17040BDE81EFF2FE10201D0E3C9
:105920000100001A0200A0E31EFF2FE1023540E251
:105930007F0453E30100002A0400A0E31EFF2FE1CF
:1059400024309FE5012040E2030052E10100008A7B
:105950000300A0E31EFF2FE110309FE5003063E05D
:10596000000073E20300A0E01EFF2FE1FEFF7F00B6
:105970000000807F10402DE9C50100EB08109FE575
:10598000131100FA1040BDE81EFF2FE11872313FDD
:10599000A03BA0E1FF3003E27F3043E2160053E377
:1059A0000010A0E10A0000CA000053E30020A0E1BB
:1059B0000D0000BA44009FE55003A0E1000011E192
:1059C0000115A013511382100010C1110100A0E1B4
:1059D0001EFF2FE1800053E3FBFFFF1A10402DE96B
:1059E000A8FCFFFA1040BDE81EFF2FE1021100E203
:1059F000010073E3FE1581030100A0E11EFF2FE10A
:105A0000FFFF7F0004E02DE5B8209FE50231C0E3F1
:105A1000020053E10CD04DE2150000DAA8209FE50A
:105A2000020053E1040000DA0010A0E194FCFFFA48
:105A30000CD08DE204E09DE41EFF2FE10D10A0E1EB
:105A4000300A00EB030000E2010050E31400000AFA
:105A5000020050E30C00000A000050E31400000AAA
:105A600004109DE500009DE5800B00EB020180E243
:105A7000EEFFFFEA0020A0E30010A0E35B0E00EBC6
:105A80000CD08DE204E09DE41EFF2FE10120A0E395
:105A900004109DE500009DE5540E00EB020180E23C
:105AA000E2FFFFEA04109DE500009DE56F0B00EBAF
:105AB000DEFFFFEA0120A0E304109DE500009DE564
:105AC0004A0E00EBD9FFFFEAD80F493FFFFF7F7F67
:105AD00004E02DE570209FE50231C0E3020053E1B0
:105AE0000CD04DE2120000DA60209FE5020053E185
:105AF000040000DA0010A0E161FCFFFA0CD08DE296
:105B000004E09DE41EFF2FE10D10A0E1FD0900EB74
:105B10008000A0E1022000E2012062E204109DE585
:105B200000009DE5830E00EB0CD08DE204E09DE4C7
:105B30001EFF2FE10120A0E30010A0E37D0E00EB8B
:105B40000CD08DE204E09DE41EFF2FE1DA0F493F07
:105B5000FFFF7F7FF0402DE92CD04DE20050A0E107
:105B60003D0300EB04719FE5D030D7E10060A0E178
:105B7000010073E30510A0E10500A0E10040A013BF
:105B80000140A0031B1100FA000050E30030A00107
:105B90000130A013033084E1FF4013E22500001A16
:105BA0000500A0E130FFFFEBFE15A0E30C1100FAA9
:105BB000000050E31F00000A0120A0E3B0309FE581
:105BC0000500A0E10C008DE820408DE55CFAFFFAAD
:105BD0000020A0E10130A0E198009FE510208DE5B4
:105BE00014308DE508208DE50C308DE52A0F00EB93
:105BF000D030D7E1020053E318008DE51C108DE58D
:105C00001000000A0D00A0E1210F00EB000050E39E
:105C10000C00000A20309DE5000053E30F00001A3D
:105C200018108DE2030091E8EBFBFFFA2CD08DE217
:105C3000F040BDE81EFF2FE10600A0E12CD08DE270
:105C4000F040BDE81EFF2FE1471100EB2130A0E33B
:105C5000003080E520309DE5000053E3EFFFFF0AB0
:105C6000411100EB20309DE5003080E5EBFFFFEABD
:105C7000000800204C7B0D08907B0D08F0402DE9BA
:105C80002CD04DE20050A0E1E60300EB04719FE54B
:105C9000D030D7E10060A0E1010073E30510A0E17E
:105CA0000500A0E10040A0130140A003D11000FABC
:105CB000000050E30030A0010130A013033084E164
:105CC000FF4013E22500001A0500A0E1E6FEFFEB0D
:105CD000FE15A0E3C21000FA000050E31F00000A06
:105CE0000120A0E3B0309FE50500A0E10C008DE8A5
:105CF00020408DE512FAFFFA0020A0E10130A0E17A
:105D000098009FE510208DE514308DE508208DE585
:105D10000C308DE5E00E00EBD030D7E1020053E30C
:105D200018008DE51C108DE51000000A0D00A0E1A3
:105D3000D70E00EB000050E30C00000A20309DE578
:105D4000000053E30F00001A18108DE2030091E8E1
:105D5000A1FBFFFA2CD08DE2F040BDE81EFF2FE141
:105D60000600A0E12CD08DE2F040BDE81EFF2FE13F
:105D7000FD1000EB2130A0E3003080E520309DE5F0
:105D8000000053E3EFFFFF0AF71000EB20309DE522
:105D9000003080E5EBFFFFEA00080020547B0D088F
:105DA000907B0D0810402DE97C0400EB1040BDE80D
